{"src/LUXSale.sol":{"LUXSale":{"abi":[{"inputs":[{"internalType":"uint256","name":"_numberOfDays","type":"uint256"},{"internalType":"uint256","name":"_totalSupply","type":"uint256"},{"internalType":"uint256","name":"_openTime","type":"uint256"},{"internalType":"uint256","name":"_startTime","type":"uint256"},{"internalType":"uint256","name":"_foundersAllocation","type":"uint256"},{"internalType":"string","name":"_foundersKey","type":"string"},{"internalType":"uint256","name":"_basePrice","type":"uint256"},{"internalType":"uint256","name":"_priceIncreaseRate","type":"uint256"}],"stateMutability":"nonpayable","type":"constructor"},{"inputs":[{"internalType":"address","name":"owner","type":"address"}],"name":"OwnableInvalidOwner","type":"error"},{"inputs":[{"internalType":"address","name":"account","type":"address"}],"name":"OwnableUnauthorizedAccount","type":"error"},{"inputs":[],"name":"ReentrancyGuardReentrantCall","type":"error"},{"anonymous":false,"inputs":[{"indexed":false,"internalType":"uint256","name":"window","type":"uint256"},{"indexed":true,"internalType":"address","name":"user","type":"address"},{"indexed":false,"internalType":"uint256","name":"amount","type":"uint256"}],"name":"LogBuy","type":"event"},{"anonymous":false,"inputs":[{"indexed":false,"internalType":"uint256","name":"window","type":"uint256"},{"indexed":true,"internalType":"address","name":"user","type":"address"},{"indexed":false,"internalType":"uint256","name":"amount","type":"uint256"}],"name":"LogClaim","type":"event"},{"anonymous":false,"inputs":[{"indexed":false,"internalType":"uint256","name":"amount","type":"uint256"}],"name":"LogCollect","type":"event"},{"anonymous":false,"inputs":[],"name":"LogFreeze","type":"event"},{"anonymous":false,"inputs":[{"indexed":true,"internalType":"address","name":"user","type":"address"},{"indexed":false,"internalType":"string","name":"key","type":"string"}],"name":"LogRegister","type":"event"},{"anonymous":false,"inputs":[{"indexed":true,"internalType":"address","name":"previousOwner","type":"address"},{"indexed":true,"internalType":"address","name":"newOwner","type":"address"}],"name":"OwnershipTransferred","type":"event"},{"inputs":[],"name":"LUX","outputs":[{"internalType":"contract LUXToken","name":"","type":"address"}],"stateMutability":"view","type":"function"},{"inputs":[],"name":"basePrice","outputs":[{"internalType":"uint256","name":"","type":"uint256"}],"stateMutability":"view","type":"function"},{"inputs":[],"name":"buy","outputs":[],"stateMutability":"payable","type":"function"},{"inputs":[{"internalType":"uint256","name":"day","type":"uint256"},{"internalType":"uint256","name":"limit","type":"uint256"},{"internalType":"uint256","name":"currentPrice","type":"uint256"}],"name":"buyWithLimit","outputs":[],"stateMutability":"payable","type":"function"},{"inputs":[{"internalType":"uint256","name":"day","type":"uint256"}],"name":"claim","outputs":[],"stateMutability":"nonpayable","type":"function"},{"inputs":[],"name":"claimAll","outputs":[],"stateMutability":"nonpayable","type":"function"},{"inputs":[{"internalType":"uint256","name":"","type":"uint256"},{"internalType":"address","name":"","type":"address"}],"name":"claimed","outputs":[{"internalType":"bool","name":"","type":"bool"}],"stateMutability":"view","type":"function"},{"inputs":[],"name":"collect","outputs":[],"stateMutability":"nonpayable","type":"function"},{"inputs":[],"name":"createFirstDay","outputs":[{"internalType":"uint256","name":"","type":"uint256"}],"stateMutability":"view","type":"function"},{"inputs":[{"internalType":"uint256","name":"day","type":"uint256"}],"name":"createOnDay","outputs":[{"internalType":"uint256","name":"","type":"uint256"}],"stateMutability":"view","type":"function"},{"inputs":[],"name":"createPerDay","outputs":[{"internalType":"uint256","name":"","type":"uint256"}],"stateMutability":"view","type":"function"},{"inputs":[{"internalType":"uint256","name":"","type":"uint256"}],"name":"dailyTotals","outputs":[{"internalType":"uint256","name":"","type":"uint256"}],"stateMutability":"view","type":"function"},{"inputs":[{"internalType":"uint256","name":"timestamp","type":"uint256"}],"name":"dayFor","outputs":[{"internalType":"uint256","name":"","type":"uint256"}],"stateMutability":"view","type":"function"},{"inputs":[],"name":"foundersAllocation","outputs":[{"internalType":"uint256","name":"","type":"uint256"}],"stateMutability":"view","type":"function"},{"inputs":[],"name":"foundersKey","outputs":[{"internalType":"string","name":"","type":"string"}],"stateMutability":"view","type":"function"},{"inputs":[],"name":"freeze","outputs":[],"stateMutability":"nonpayable","type":"function"},{"inputs":[{"internalType":"uint256","name":"day","type":"uint256"}],"name":"getCurrentPriceFloor","outputs":[{"internalType":"uint256","name":"","type":"uint256"}],"stateMutability":"view","type":"function"},{"inputs":[{"internalType":"contract LUXToken","name":"_lux","type":"address"}],"name":"initialize","outputs":[],"stateMutability":"nonpayable","type":"function"},{"inputs":[{"internalType":"address","name":"","type":"address"}],"name":"keys","outputs":[{"internalType":"string","name":"","type":"string"}],"stateMutability":"view","type":"function"},{"inputs":[],"name":"numberOfDays","outputs":[{"internalType":"uint256","name":"","type":"uint256"}],"stateMutability":"view","type":"function"},{"inputs":[],"name":"openTime","outputs":[{"internalType":"uint256","name":"","type":"uint256"}],"stateMutability":"view","type":"function"},{"inputs":[],"name":"owner","outputs":[{"internalType":"address","name":"","type":"address"}],"stateMutability":"view","type":"function"},{"inputs":[],"name":"priceIncreaseRate","outputs":[{"internalType":"uint256","name":"","type":"uint256"}],"stateMutability":"view","type":"function"},{"inputs":[{"internalType":"string","name":"key","type":"string"}],"name":"register","outputs":[],"stateMutability":"nonpayable","type":"function"},{"inputs":[],"name":"renounceOwnership","outputs":[],"stateMutability":"nonpayable","type":"function"},{"inputs":[],"name":"startTime","outputs":[{"internalType":"uint256","name":"","type":"uint256"}],"stateMutability":"view","type":"function"},{"inputs":[],"name":"time","outputs":[{"internalType":"uint256","name":"","type":"uint256"}],"stateMutability":"view","type":"function"},{"inputs":[],"name":"today","outputs":[{"internalType":"uint256","name":"","type":"uint256"}],"stateMutability":"view","type":"function"},{"inputs":[],"name":"totalSupply","outputs":[{"internalType":"uint256","name":"","type":"uint256"}],"stateMutability":"view","type":"function"},{"inputs":[{"internalType":"address","name":"newOwner","type":"address"}],"name":"transferOwnership","outputs":[],"stateMutability":"nonpayable","type":"function"},{"inputs":[{"internalType":"uint256","name":"","type":"uint256"},{"internalType":"address","name":"","type":"address"}],"name":"userBuys","outputs":[{"internalType":"uint256","name":"","type":"uint256"}],"stateMutability":"view","type":"function"}],"evm":{"bytecode":{"linkReferences":{},"object":"60806040523480156200001157600080fd5b50604051620019ed380380620019ed83398101604081905262000034916200018f565b33806200005b57604051631e4fbdf760e01b81526000600482015260240160405180910390fd5b620000668162000129565b5060018055876200007657600080fd5b8387116200008357600080fd5b8486106200009057600080fd5b600988905560038790556006869055600885905560048490556005620000b7848262000334565b50600b829055600c819055600354606490620000d590601462000416565b620000e1919062000436565b600781905550600954600754600454600354620000ff919062000459565b6200010b919062000459565b62000117919062000436565b600a55506200046f9650505050505050565b600080546001600160a01b038381166001600160a01b0319831681178455604051919092169283917f8be0079c531659141344cd1fd0a4f28419497f9722a3daafe3b4186f6b6457e09190a35050565b634e487b7160e01b600052604160045260246000fd5b600080600080600080600080610100898b031215620001ad57600080fd5b885197506020808a0151975060408a0151965060608a0151955060808a0151945060a08a015160018060401b0380821115620001e857600080fd5b818c0191508c601f830112620001fd57600080fd5b81518181111562000212576200021262000179565b604051601f8201601f19908116603f011681019083821181831017156200023d576200023d62000179565b816040528281528f868487010111156200025657600080fd5b600093505b828410156200027a57848401860151818501870152928501926200025b565b60009281019095019190915250505060c08a015160e0909a0151989b979a5095989497939692505050565b600181811c90821680620002ba57607f821691505b602082108103620002db57634e487b7160e01b600052602260045260246000fd5b50919050565b601f8211156200032f57600081815260208120601f850160051c810160208610156200030a5750805b601f850160051c820191505b818110156200032b5782815560010162000316565b5050505b505050565b81516001600160401b0381111562000350576200035062000179565b6200036881620003618454620002a5565b84620002e1565b602080601f831160018114620003a05760008415620003875750858301515b600019600386901b1c1916600185901b1785556200032b565b600085815260208120601f198616915b82811015620003d157888601518255948401946001909101908401620003b0565b5085821015620003f05787850151600019600388901b60f8161c191681555b5050505050600190811b01905550565b634e487b7160e01b600052601160045260246000fd5b808202811582820484141762000430576200043062000400565b92915050565b6000826200045457634e487b7160e01b600052601260045260246000fd5b500490565b8181038181111562000430576200043062000400565b61156e806200047f6000396000f3fe6080604052600436106101d85760003560e01c80638da5cb5b11610102578063d1058e5911610095578063e9f6bd0b11610064578063e9f6bd0b14610503578063f2c298be14610519578063f2fde38b14610539578063f96512cc1461055957600080fd5b8063d1058e5914610499578063d174d584146104ae578063d90c1759146104ce578063e5225381146104ee57600080fd5b8063b74e452b116100d1578063b74e452b14610438578063c4d66de81461044d578063c7876ea41461046d578063cfae52e11461048357600080fd5b80638da5cb5b146103c857806392724df4146103fa578063a6f2ae3a1461041a578063b42568881461042257600080fd5b80633904e1bf1161017a578063670d14b211610149578063670d14b214610350578063715018a61461037057806378e97925146103855780637d34f5ac1461039b57600080fd5b80633904e1bf146102cd57806353014d67146103055780635ca811391461031b57806362a5af3b1461033b57600080fd5b806318160ddd116101b657806318160ddd1461025f5780631db580fa14610275578063379607f51461028b578063389ae4d1146102ab57600080fd5b80630842d271146101dd578063120aa877146101f257806316ada54714610242575b600080fd5b6101f06101eb366004610f37565b61056f565b005b3480156101fe57600080fd5b5061022d61020d366004610f78565b600f60209081526000928352604080842090915290825290205460ff1681565b60405190151581526020015b60405180910390f35b34801561024e57600080fd5b50425b604051908152602001610239565b34801561026b57600080fd5b5061025160035481565b34801561028157600080fd5b5061025160045481565b34801561029757600080fd5b506101f06102a6366004610fa8565b6106a6565b3480156102b757600080fd5b506102c0610829565b6040516102399190610fc1565b3480156102d957600080fd5b506102516102e8366004610f78565b600e60209081526000928352604080842090915290825290205481565b34801561031157600080fd5b50610251600c5481565b34801561032757600080fd5b50610251610336366004610fa8565b6108b7565b34801561034757600080fd5b506101f06108d1565b34801561035c57600080fd5b506102c061036b36600461100f565b6109f1565b34801561037c57600080fd5b506101f0610a0a565b34801561039157600080fd5b5061025160085481565b3480156103a757600080fd5b506102516103b6366004610fa8565b600d6020526000908152604090205481565b3480156103d457600080fd5b506000546001600160a01b03165b6040516001600160a01b039091168152602001610239565b34801561040657600080fd5b50610251610415366004610fa8565b610a1e565b6101f0610a5c565b34801561042e57600080fd5b5061025160065481565b34801561044457600080fd5b50610251610a85565b34801561045957600080fd5b506101f061046836600461100f565b610a95565b34801561047957600080fd5b50610251600b5481565b34801561048f57600080fd5b5061025160075481565b3480156104a557600080fd5b506101f0610c92565b3480156104ba57600080fd5b506002546103e2906001600160a01b031681565b3480156104da57600080fd5b506102516104e9366004610fa8565b610ce5565b3480156104fa57600080fd5b506101f0610d24565b34801561050f57600080fd5b5061025160095481565b34801561052557600080fd5b506101f0610534366004611049565b610dc2565b34801561054557600080fd5b506101f061055436600461100f565b610e50565b34801561056557600080fd5b50610251600a5481565b610577610e90565b6006544210158015610592575060095461058f610a85565b11155b61059b57600080fd5b662386f26fc100003410156105af57600080fd5b6105b7610a85565b83101580156105c857506009548311155b6105d157600080fd5b60006105dc84610a1e565b9050808210156105eb57600080fd5b6000848152600e6020908152604080832033845290915281208054349290610614908490611110565b90915550506000848152600d602052604081208054349290610637908490611110565b9091555050821561065d576000848152600d602052604090205483101561065d57600080fd5b6040805185815234602082015233917fe054057d0479c6218d6ec87be73f88230a7e4e1f064cee6e7504e2c4cd9d6150910160405180910390a2506106a160018055565b505050565b6106ae610e90565b806106b7610a85565b116106c157600080fd5b6000818152600f6020908152604080832033845290915290205460ff16806106f557506000818152600d6020526040902054155b61081d576000818152600d6020908152604080832054600e83528184203385529092528220549091610726846108b7565b90506000836107358484611123565b61073f919061113a565b6000868152600f6020908152604080832033808552925291829020805460ff19166001179055600254915163a9059cbb60e01b81526004810191909152602481018390529192506001600160a01b03169063a9059cbb906044016020604051808303816000875af11580156107b8573d6000803e3d6000fd5b505050506040513d601f19601f820116820180604052508101906107dc919061115c565b50604080518681526020810183905233917f51223fdc0a25891366fb358b4af9fe3c381b1566e287c61a29d01c8a173fe4f4910160405180910390a2505050505b61082660018055565b50565b600580546108369061117e565b80601f01602080910402602001604051908101604052809291908181526020018280546108629061117e565b80156108af5780601f10610884576101008083540402835291602001916108af565b820191906000526020600020905b81548152906001019060200180831161089257829003601f168201915b505050505081565b600081156108c757600a546108cb565b6007545b92915050565b6108d9610eba565b6009546108e7906001611110565b6108ef610a85565b116108f957600080fd5b6002546040516370a0823160e01b81523060048201526000916001600160a01b0316906370a0823190602401602060405180830381865afa158015610942573d6000803e3d6000fd5b505050506040513d601f19601f8201168201806040525081019061096691906111b8565b600254604051630852cd8d60e31b8152600481018390529192506001600160a01b0316906342966c6890602401600060405180830381600087803b1580156109ad57600080fd5b505af11580156109c1573d6000803e3d6000fd5b50506040517fad487f3c412409f5b36d6b5ae6f3bb9c34e15234b3e9f101bb6ef0d584593c61925060009150a150565b601060205260009081526040902080546108369061117e565b610a12610eba565b610a1c6000610ee7565b565b6000610a2b8260646112b5565b82600c546064610a3b9190611110565b610a4591906112b5565b600b54610a529190611123565b6108cb919061113a565b6000610a66610a85565b90506000610a7382610a1e565b9050610a818260008361056f565b5050565b6000610a9042610ce5565b905090565b610a9d610eba565b6002546001600160a01b031615610ab357600080fd5b806001600160a01b03166318160ddd6040518163ffffffff1660e01b8152600401602060405180830381865afa158015610af1573d6000803e3d6000fd5b505050506040513d601f19601f82011682018060405250810190610b1591906111b8565b15610b1f57600080fd5b600280546001600160a01b0319166001600160a01b0383169081179091556003546040516340c10f1960e01b815230600482015260248101919091526340c10f1990604401600060405180830381600087803b158015610b7e57600080fd5b505af1158015610b92573d6000803e3d6000fd5b50506002546004805460405163a9059cbb60e01b8152739011e888251ab053b7bd1cdb598db4f9ded9471492810183905260248101919091529093506001600160a01b03909116915063a9059cbb906044016020604051808303816000875af1158015610c03573d6000803e3d6000fd5b505050506040513d601f19601f82011682018060405250810190610c27919061115c565b506001600160a01b0381166000908152601060205260409020610c4b60058261130f565b50806001600160a01b03167fd80364ba2cbb1e827ab8adac9651cdfc27fb7b61c0a95663cb80b82d7636ad226005604051610c8691906113f0565b60405180910390a25050565b6000610c9c610a85565b905060005b81811015610a81576000818152600f6020908152604080832033845290915290205460ff16610cd357610cd3816106a6565b80610cdd8161147b565b915050610ca1565b60006008548210610d1c576201518060085483610d029190611494565b610d0c919061113a565b610d17906001611110565b6108cb565b600092915050565b610d2c610eba565b6000610d36610a85565b11610d4057600080fd5b47610d536000546001600160a01b031690565b6001600160a01b03166108fc829081150290604051600060405180830381858888f19350505050158015610d8b573d6000803e3d6000fd5b506040518181527f4ceba015d961d93f1d6825703b730a8ba05619c005dfd8073aee773dc6725fbb9060200160405180910390a150565b600954610dd0906001611110565b610dd8610a85565b1115610de357600080fd5b604081511115610df257600080fd5b336000908152601060205260409020610e0b82826114a7565b50336001600160a01b03167fd80364ba2cbb1e827ab8adac9651cdfc27fb7b61c0a95663cb80b82d7636ad2282604051610e459190610fc1565b60405180910390a250565b610e58610eba565b6001600160a01b038116610e8757604051631e4fbdf760e01b8152600060048201526024015b60405180910390fd5b61082681610ee7565b600260015403610eb357604051633ee5aeb560e01b815260040160405180910390fd5b6002600155565b6000546001600160a01b03163314610a1c5760405163118cdaa760e01b8152336004820152602401610e7e565b600080546001600160a01b038381166001600160a01b0319831681178455604051919092169283917f8be0079c531659141344cd1fd0a4f28419497f9722a3daafe3b4186f6b6457e09190a35050565b600080600060608486031215610f4c57600080fd5b505081359360208301359350604090920135919050565b6001600160a01b038116811461082657600080fd5b60008060408385031215610f8b57600080fd5b823591506020830135610f9d81610f63565b809150509250929050565b600060208284031215610fba57600080fd5b5035919050565b600060208083528351808285015260005b81811015610fee57858101830151858201604001528201610fd2565b506000604082860101526040601f19601f8301168501019250505092915050565b60006020828403121561102157600080fd5b813561102c81610f63565b9392505050565b634e487b7160e01b600052604160045260246000fd5b60006020828403121561105b57600080fd5b813567ffffffffffffffff8082111561107357600080fd5b818401915084601f83011261108757600080fd5b81358181111561109957611099611033565b604051601f8201601f19908116603f011681019083821181831017156110c1576110c1611033565b816040528281528760208487010111156110da57600080fd5b826020860160208301376000928101602001929092525095945050505050565b634e487b7160e01b600052601160045260246000fd5b808201808211156108cb576108cb6110fa565b80820281158282048414176108cb576108cb6110fa565b60008261115757634e487b7160e01b600052601260045260246000fd5b500490565b60006020828403121561116e57600080fd5b8151801515811461102c57600080fd5b600181811c9082168061119257607f821691505b6020821081036111b257634e487b7160e01b600052602260045260246000fd5b50919050565b6000602082840312156111ca57600080fd5b5051919050565b600181815b8085111561120c5781600019048211156111f2576111f26110fa565b808516156111ff57918102915b93841c93908002906111d6565b509250929050565b600082611223575060016108cb565b81611230575060006108cb565b816001811461124657600281146112505761126c565b60019150506108cb565b60ff841115611261576112616110fa565b50506001821b6108cb565b5060208310610133831016604e8410600b841016171561128f575081810a6108cb565b61129983836111d1565b80600019048211156112ad576112ad6110fa565b029392505050565b600061102c8383611214565b601f8211156106a157600081815260208120601f850160051c810160208610156112e85750805b601f850160051c820191505b81811015611307578281556001016112f4565b505050505050565b81810361131a575050565b611324825461117e565b67ffffffffffffffff81111561133c5761133c611033565b6113508161134a845461117e565b846112c1565b6000601f821160018114611384576000831561136c5750848201545b600019600385901b1c1916600184901b1784556113e9565b600085815260209020601f19841690600086815260209020845b838110156113be578286015482556001958601959091019060200161139e565b50858310156113dc5781850154600019600388901b60f8161c191681555b50505060018360011b0184555b5050505050565b60006020808352600084546114048161117e565b80848701526040600180841660008114611425576001811461143f5761146d565b60ff1985168984015283151560051b89018301955061146d565b896000528660002060005b858110156114655781548b820186015290830190880161144a565b8a0184019650505b509398975050505050505050565b60006001820161148d5761148d6110fa565b5060010190565b818103818111156108cb576108cb6110fa565b815167ffffffffffffffff8111156114c1576114c1611033565b6114cf8161134a845461117e565b602080601f83116001811461150457600084156114ec5750858301515b600019600386901b1c1916600185901b178555611307565b600085815260208120601f198616915b8281101561153357888601518255948401946001909101908401611514565b50858210156115515787850151600019600388901b60f8161c191681555b5050505050600190811b0190555056fea164736f6c6343000814000a","opcodes":"PUSH1 0x80 PUSH1 0x40 MSTORE CALLVALUE DUP1 ISZERO PUSH3 0x11 JUMPI PUSH1 0x0 DUP1 REVERT JUMPDEST POP PUSH1 0x40 MLOAD PUSH3 0x19ED CODESIZE SUB DUP1 PUSH3 0x19ED DUP4 CODECOPY DUP2 ADD PUSH1 0x40 DUP2 SWAP1 MSTORE PUSH3 0x34 SWAP2 PUSH3 0x18F JUMP JUMPDEST CALLER DUP1 PUSH3 0x5B JUMPI PUSH1 0x40 MLOAD PUSH4 0x1E4FBDF7 PUSH1 0xE0 SHL DUP2 MSTORE PUSH1 0x0 PUSH1 0x4 DUP3 ADD MSTORE PUSH1 0x24 ADD PUSH1 0x40 MLOAD DUP1 SWAP2 SUB SWAP1 REVERT JUMPDEST PUSH3 0x66 DUP2 PUSH3 0x129 JUMP JUMPDEST POP PUSH1 0x1 DUP1 SSTORE DUP8 PUSH3 0x76 JUMPI PUSH1 0x0 DUP1 REVERT JUMPDEST DUP4 DUP8 GT PUSH3 0x83 JUMPI PUSH1 0x0 DUP1 REVERT JUMPDEST DUP5 DUP7 LT PUSH3 0x90 JUMPI PUSH1 0x0 DUP1 REVERT JUMPDEST PUSH1 0x9 DUP9 SWAP1 SSTORE PUSH1 0x3 DUP8 SWAP1 SSTORE PUSH1 0x6 DUP7 SWAP1 SSTORE PUSH1 0x8 DUP6 SWAP1 SSTORE PUSH1 0x4 DUP5 SWAP1 SSTORE PUSH1 0x5 PUSH3 0xB7 DUP5 DUP3 PUSH3 0x334 JUMP JUMPDEST POP PUSH1 0xB DUP3 SWAP1 SSTORE PUSH1 0xC DUP2 SWAP1 SSTORE PUSH1 0x3 SLOAD PUSH1 0x64 SWAP1 PUSH3 0xD5 SWAP1 PUSH1 0x14 PUSH3 0x416 JUMP JUMPDEST PUSH3 0xE1 SWAP2 SWAP1 PUSH3 0x436 JUMP JUMPDEST PUSH1 0x7 DUP2 SWAP1 SSTORE POP PUSH1 0x9 SLOAD PUSH1 0x7 SLOAD PUSH1 0x4 SLOAD PUSH1 0x3 SLOAD PUSH3 0xFF SWAP2 SWAP1 PUSH3 0x459 JUMP JUMPDEST PUSH3 0x10B SWAP2 SWAP1 PUSH3 0x459 JUMP JUMPDEST PUSH3 0x117 SWAP2 SWAP1 PUSH3 0x436 JUMP JUMPDEST PUSH1 0xA SSTORE POP PUSH3 0x46F SWAP7 POP POP POP POP POP POP POP JUMP JUMPDEST PUSH1 0x0 DUP1 SLOAD PUSH1 0x1 PUSH1 0x1 PUSH1 0xA0 SHL SUB DUP4 DUP2 AND PUSH1 0x1 PUSH1 0x1 PUSH1 0xA0 SHL SUB NOT DUP4 AND DUP2 OR DUP5 SSTORE PUSH1 0x40 MLOAD SWAP2 SWAP1 SWAP3 AND SWAP3 DUP4 SWAP2 PUSH32 0x8BE0079C531659141344CD1FD0A4F28419497F9722A3DAAFE3B4186F6B6457E0 SWAP2 SWAP1 LOG3 POP POP JUMP JUMPDEST PUSH4 0x4E487B71 PUSH1 0xE0 SHL PUSH1 0x0 MSTORE PUSH1 0x41 PUSH1 0x4 MSTORE PUSH1 0x24 PUSH1 0x0 REVERT JUMPDEST PUSH1 0x0 DUP1 PUSH1 0x0 DUP1 PUSH1 0x0 DUP1 PUSH1 0x0 DUP1 PUSH2 0x100 DUP10 DUP12 SUB SLT ISZERO PUSH3 0x1AD JUMPI PUSH1 0x0 DUP1 REVERT JUMPDEST DUP9 MLOAD SWAP8 POP PUSH1 0x20 DUP1 DUP11 ADD MLOAD SWAP8 POP PUSH1 0x40 DUP11 ADD MLOAD SWAP7 POP PUSH1 0x60 DUP11 ADD MLOAD SWAP6 POP PUSH1 0x80 DUP11 ADD MLOAD SWAP5 POP PUSH1 0xA0 DUP11 ADD MLOAD PUSH1 0x1 DUP1 PUSH1 0x40 SHL SUB DUP1 DUP3 GT ISZERO PUSH3 0x1E8 JUMPI PUSH1 0x0 DUP1 REVERT JUMPDEST DUP2 DUP13 ADD SWAP2 POP DUP13 PUSH1 0x1F DUP4 ADD SLT PUSH3 0x1FD JUMPI PUSH1 0x0 DUP1 REVERT JUMPDEST DUP2 MLOAD DUP2 DUP2 GT ISZERO PUSH3 0x212 JUMPI PUSH3 0x212 PUSH3 0x179 JUMP JUMPDEST PUSH1 0x40 MLOAD PUSH1 0x1F DUP3 ADD PUSH1 0x1F NOT SWAP1 DUP2 AND PUSH1 0x3F ADD AND DUP2 ADD SWAP1 DUP4 DUP3 GT DUP2 DUP4 LT OR ISZERO PUSH3 0x23D JUMPI PUSH3 0x23D PUSH3 0x179 JUMP JUMPDEST DUP2 PUSH1 0x40 MSTORE DUP3 DUP2 MSTORE DUP16 DUP7 DUP5 DUP8 ADD ADD GT ISZERO PUSH3 0x256 JUMPI PUSH1 0x0 DUP1 REVERT JUMPDEST PUSH1 0x0 SWAP4 POP JUMPDEST DUP3 DUP5 LT ISZERO PUSH3 0x27A JUMPI DUP5 DUP5 ADD DUP7 ADD MLOAD DUP2 DUP6 ADD DUP8 ADD MSTORE SWAP3 DUP6 ADD SWAP3 PUSH3 0x25B JUMP JUMPDEST PUSH1 0x0 SWAP3 DUP2 ADD SWAP1 SWAP6 ADD SWAP2 SWAP1 SWAP2 MSTORE POP POP POP PUSH1 0xC0 DUP11 ADD MLOAD PUSH1 0xE0 SWAP1 SWAP11 ADD MLOAD SWAP9 SWAP12 SWAP8 SWAP11 POP SWAP6 SWAP9 SWAP5 SWAP8 SWAP4 SWAP7 SWAP3 POP POP POP JUMP JUMPDEST PUSH1 0x1 DUP2 DUP2 SHR SWAP1 DUP3 AND DUP1 PUSH3 0x2BA JUMPI PUSH1 0x7F DUP3 AND SWAP2 POP JUMPDEST PUSH1 0x20 DUP3 LT DUP2 SUB PUSH3 0x2DB JUMPI PUSH4 0x4E487B71 PUSH1 0xE0 SHL PUSH1 0x0 MSTORE PUSH1 0x22 PUSH1 0x4 MSTORE PUSH1 0x24 PUSH1 0x0 REVERT JUMPDEST POP SWAP2 SWAP1 POP JUMP JUMPDEST PUSH1 0x1F DUP3 GT ISZERO PUSH3 0x32F JUMPI PUSH1 0x0 DUP2 DUP2 MSTORE PUSH1 0x20 DUP2 KECCAK256 PUSH1 0x1F DUP6 ADD PUSH1 0x5 SHR DUP2 ADD PUSH1 0x20 DUP7 LT ISZERO PUSH3 0x30A JUMPI POP DUP1 JUMPDEST PUSH1 0x1F DUP6 ADD PUSH1 0x5 SHR DUP3 ADD SWAP2 POP JUMPDEST DUP2 DUP2 LT ISZERO PUSH3 0x32B JUMPI DUP3 DUP2 SSTORE PUSH1 0x1 ADD PUSH3 0x316 JUMP JUMPDEST POP POP POP JUMPDEST POP POP POP JUMP JUMPDEST DUP2 MLOAD PUSH1 0x1 PUSH1 0x1 PUSH1 0x40 SHL SUB DUP2 GT ISZERO PUSH3 0x350 JUMPI PUSH3 0x350 PUSH3 0x179 JUMP JUMPDEST PUSH3 0x368 DUP2 PUSH3 0x361 DUP5 SLOAD PUSH3 0x2A5 JUMP JUMPDEST DUP5 PUSH3 0x2E1 JUMP JUMPDEST PUSH1 0x20 DUP1 PUSH1 0x1F DUP4 GT PUSH1 0x1 DUP2 EQ PUSH3 0x3A0 JUMPI PUSH1 0x0 DUP5 ISZERO PUSH3 0x387 JUMPI POP DUP6 DUP4 ADD MLOAD JUMPDEST PUSH1 0x0 NOT PUSH1 0x3 DUP7 SWAP1 SHL SHR NOT AND PUSH1 0x1 DUP6 SWAP1 SHL OR DUP6 SSTORE PUSH3 0x32B JUMP JUMPDEST PUSH1 0x0 DUP6 DUP2 MSTORE PUSH1 0x20 DUP2 KECCAK256 PUSH1 0x1F NOT DUP7 AND SWAP2 JUMPDEST DUP3 DUP2 LT ISZERO PUSH3 0x3D1 JUMPI DUP9 DUP7 ADD MLOAD DUP3 SSTORE SWAP5 DUP5 ADD SWAP5 PUSH1 0x1 SWAP1 SWAP2 ADD SWAP1 DUP5 ADD PUSH3 0x3B0 JUMP JUMPDEST POP DUP6 DUP3 LT ISZERO PUSH3 0x3F0 JUMPI DUP8 DUP6 ADD MLOAD PUSH1 0x0 NOT PUSH1 0x3 DUP9 SWAP1 SHL PUSH1 0xF8 AND SHR NOT AND DUP2 SSTORE JUMPDEST POP POP POP POP POP PUSH1 0x1 SWAP1 DUP2 SHL ADD SWAP1 SSTORE POP JUMP JUMPDEST PUSH4 0x4E487B71 PUSH1 0xE0 SHL PUSH1 0x0 MSTORE PUSH1 0x11 PUSH1 0x4 MSTORE PUSH1 0x24 PUSH1 0x0 REVERT JUMPDEST DUP1 DUP3 MUL DUP2 ISZERO DUP3 DUP3 DIV DUP5 EQ OR PUSH3 0x430 JUMPI PUSH3 0x430 PUSH3 0x400 JUMP JUMPDEST SWAP3 SWAP2 POP POP JUMP JUMPDEST PUSH1 0x0 DUP3 PUSH3 0x454 JUMPI PUSH4 0x4E487B71 PUSH1 0xE0 SHL PUSH1 0x0 MSTORE PUSH1 0x12 PUSH1 0x4 MSTORE PUSH1 0x24 PUSH1 0x0 REVERT JUMPDEST POP DIV SWAP1 JUMP JUMPDEST DUP2 DUP2 SUB DUP2 DUP2 GT ISZERO PUSH3 0x430 JUMPI PUSH3 0x430 PUSH3 0x400 JUMP JUMPDEST PUSH2 0x156E DUP1 PUSH3 0x47F PUSH1 0x0 CODECOPY PUSH1 0x0 RETURN INVALID PUSH1 0x80 PUSH1 0x40 MSTORE PUSH1 0x4 CALLDATASIZE LT PUSH2 0x1D8 JUMPI PUSH1 0x0 CALLDATALOAD PUSH1 0xE0 SHR DUP1 PUSH4 0x8DA5CB5B GT PUSH2 0x102 JUMPI DUP1 PUSH4 0xD1058E59 GT PUSH2 0x95 JUMPI DUP1 PUSH4 0xE9F6BD0B GT PUSH2 0x64 JUMPI DUP1 PUSH4 0xE9F6BD0B EQ PUSH2 0x503 JUMPI DUP1 PUSH4 0xF2C298BE EQ PUSH2 0x519 JUMPI DUP1 PUSH4 0xF2FDE38B EQ PUSH2 0x539 JUMPI DUP1 PUSH4 0xF96512CC EQ PUSH2 0x559 JUMPI PUSH1 0x0 DUP1 REVERT JUMPDEST DUP1 PUSH4 0xD1058E59 EQ PUSH2 0x499 JUMPI DUP1 PUSH4 0xD174D584 EQ PUSH2 0x4AE JUMPI DUP1 PUSH4 0xD90C1759 EQ PUSH2 0x4CE JUMPI DUP1 PUSH4 0xE5225381 EQ PUSH2 0x4EE JUMPI PUSH1 0x0 DUP1 REVERT JUMPDEST DUP1 PUSH4 0xB74E452B GT PUSH2 0xD1 JUMPI DUP1 PUSH4 0xB74E452B EQ PUSH2 0x438 JUMPI DUP1 PUSH4 0xC4D66DE8 EQ PUSH2 0x44D JUMPI DUP1 PUSH4 0xC7876EA4 EQ PUSH2 0x46D JUMPI DUP1 PUSH4 0xCFAE52E1 EQ PUSH2 0x483 JUMPI PUSH1 0x0 DUP1 REVERT JUMPDEST DUP1 PUSH4 0x8DA5CB5B EQ PUSH2 0x3C8 JUMPI DUP1 PUSH4 0x92724DF4 EQ PUSH2 0x3FA JUMPI DUP1 PUSH4 0xA6F2AE3A EQ PUSH2 0x41A JUMPI DUP1 PUSH4 0xB4256888 EQ PUSH2 0x422 JUMPI PUSH1 0x0 DUP1 REVERT JUMPDEST DUP1 PUSH4 0x3904E1BF GT PUSH2 0x17A JUMPI DUP1 PUSH4 0x670D14B2 GT PUSH2 0x149 JUMPI DUP1 PUSH4 0x670D14B2 EQ PUSH2 0x350 JUMPI DUP1 PUSH4 0x715018A6 EQ PUSH2 0x370 JUMPI DUP1 PUSH4 0x78E97925 EQ PUSH2 0x385 JUMPI DUP1 PUSH4 0x7D34F5AC EQ PUSH2 0x39B JUMPI PUSH1 0x0 DUP1 REVERT JUMPDEST DUP1 PUSH4 0x3904E1BF EQ PUSH2 0x2CD JUMPI DUP1 PUSH4 0x53014D67 EQ PUSH2 0x305 JUMPI DUP1 PUSH4 0x5CA81139 EQ PUSH2 0x31B JUMPI DUP1 PUSH4 0x62A5AF3B EQ PUSH2 0x33B JUMPI PUSH1 0x0 DUP1 REVERT JUMPDEST DUP1 PUSH4 0x18160DDD GT PUSH2 0x1B6 JUMPI DUP1 PUSH4 0x18160DDD EQ PUSH2 0x25F JUMPI DUP1 PUSH4 0x1DB580FA EQ PUSH2 0x275 JUMPI DUP1 PUSH4 0x379607F5 EQ PUSH2 0x28B JUMPI DUP1 PUSH4 0x389AE4D1 EQ PUSH2 0x2AB JUMPI PUSH1 0x0 DUP1 REVERT JUMPDEST DUP1 PUSH4 0x842D271 EQ PUSH2 0x1DD JUMPI DUP1 PUSH4 0x120AA877 EQ PUSH2 0x1F2 JUMPI DUP1 PUSH4 0x16ADA547 EQ PUSH2 0x242 JUMPI JUMPDEST PUSH1 0x0 DUP1 REVERT JUMPDEST PUSH2 0x1F0 PUSH2 0x1EB CALLDATASIZE PUSH1 0x4 PUSH2 0xF37 JUMP JUMPDEST PUSH2 0x56F JUMP JUMPDEST STOP JUMPDEST CALLVALUE DUP1 ISZERO PUSH2 0x1FE JUMPI PUSH1 0x0 DUP1 REVERT JUMPDEST POP PUSH2 0x22D PUSH2 0x20D CALLDATASIZE PUSH1 0x4 PUSH2 0xF78 JUMP JUMPDEST PUSH1 0xF PUSH1 0x20 SWAP1 DUP2 MSTORE PUSH1 0x0 SWAP3 DUP4 MSTORE PUSH1 0x40 DUP1 DUP5 KECCAK256 SWAP1 SWAP2 MSTORE SWAP1 DUP3 MSTORE SWAP1 KECCAK256 SLOAD PUSH1 0xFF AND DUP2 JUMP JUMPDEST PUSH1 0x40 MLOAD SWAP1 ISZERO ISZERO DUP2 MSTORE PUSH1 0x20 ADD JUMPDEST PUSH1 0x40 MLOAD DUP1 SWAP2 SUB SWAP1 RETURN JUMPDEST CALLVALUE DUP1 ISZERO PUSH2 0x24E JUMPI PUSH1 0x0 DUP1 REVERT JUMPDEST POP TIMESTAMP JUMPDEST PUSH1 0x40 MLOAD SWAP1 DUP2 MSTORE PUSH1 0x20 ADD PUSH2 0x239 JUMP JUMPDEST CALLVALUE DUP1 ISZERO PUSH2 0x26B JUMPI PUSH1 0x0 DUP1 REVERT JUMPDEST POP PUSH2 0x251 PUSH1 0x3 SLOAD DUP2 JUMP JUMPDEST CALLVALUE DUP1 ISZERO PUSH2 0x281 JUMPI PUSH1 0x0 DUP1 REVERT JUMPDEST POP PUSH2 0x251 PUSH1 0x4 SLOAD DUP2 JUMP JUMPDEST CALLVALUE DUP1 ISZERO PUSH2 0x297 JUMPI PUSH1 0x0 DUP1 REVERT JUMPDEST POP PUSH2 0x1F0 PUSH2 0x2A6 CALLDATASIZE PUSH1 0x4 PUSH2 0xFA8 JUMP JUMPDEST PUSH2 0x6A6 JUMP JUMPDEST CALLVALUE DUP1 ISZERO PUSH2 0x2B7 JUMPI PUSH1 0x0 DUP1 REVERT JUMPDEST POP PUSH2 0x2C0 PUSH2 0x829 JUMP JUMPDEST PUSH1 0x40 MLOAD PUSH2 0x239 SWAP2 SWAP1 PUSH2 0xFC1 JUMP JUMPDEST CALLVALUE DUP1 ISZERO PUSH2 0x2D9 JUMPI PUSH1 0x0 DUP1 REVERT JUMPDEST POP PUSH2 0x251 PUSH2 0x2E8 CALLDATASIZE PUSH1 0x4 PUSH2 0xF78 JUMP JUMPDEST PUSH1 0xE PUSH1 0x20 SWAP1 DUP2 MSTORE PUSH1 0x0 SWAP3 DUP4 MSTORE PUSH1 0x40 DUP1 DUP5 KECCAK256 SWAP1 SWAP2 MSTORE SWAP1 DUP3 MSTORE SWAP1 KECCAK256 SLOAD DUP2 JUMP JUMPDEST CALLVALUE DUP1 ISZERO PUSH2 0x311 JUMPI PUSH1 0x0 DUP1 REVERT JUMPDEST POP PUSH2 0x251 PUSH1 0xC SLOAD DUP2 JUMP JUMPDEST CALLVALUE DUP1 ISZERO PUSH2 0x327 JUMPI PUSH1 0x0 DUP1 REVERT JUMPDEST POP PUSH2 0x251 PUSH2 0x336 CALLDATASIZE PUSH1 0x4 PUSH2 0xFA8 JUMP JUMPDEST PUSH2 0x8B7 JUMP JUMPDEST CALLVALUE DUP1 ISZERO PUSH2 0x347 JUMPI PUSH1 0x0 DUP1 REVERT JUMPDEST POP PUSH2 0x1F0 PUSH2 0x8D1 JUMP JUMPDEST CALLVALUE DUP1 ISZERO PUSH2 0x35C JUMPI PUSH1 0x0 DUP1 REVERT JUMPDEST POP PUSH2 0x2C0 PUSH2 0x36B CALLDATASIZE PUSH1 0x4 PUSH2 0x100F JUMP JUMPDEST PUSH2 0x9F1 JUMP JUMPDEST CALLVALUE DUP1 ISZERO PUSH2 0x37C JUMPI PUSH1 0x0 DUP1 REVERT JUMPDEST POP PUSH2 0x1F0 PUSH2 0xA0A JUMP JUMPDEST CALLVALUE DUP1 ISZERO PUSH2 0x391 JUMPI PUSH1 0x0 DUP1 REVERT JUMPDEST POP PUSH2 0x251 PUSH1 0x8 SLOAD DUP2 JUMP JUMPDEST CALLVALUE DUP1 ISZERO PUSH2 0x3A7 JUMPI PUSH1 0x0 DUP1 REVERT JUMPDEST POP PUSH2 0x251 PUSH2 0x3B6 CALLDATASIZE PUSH1 0x4 PUSH2 0xFA8 JUMP JUMPDEST PUSH1 0xD PUSH1 0x20 MSTORE PUSH1 0x0 SWAP1 DUP2 MSTORE PUSH1 0x40 SWAP1 KECCAK256 SLOAD DUP2 JUMP JUMPDEST CALLVALUE DUP1 ISZERO PUSH2 0x3D4 JUMPI PUSH1 0x0 DUP1 REVERT JUMPDEST POP PUSH1 0x0 SLOAD PUSH1 0x1 PUSH1 0x1 PUSH1 0xA0 SHL SUB AND JUMPDEST PUSH1 0x40 MLOAD PUSH1 0x1 PUSH1 0x1 PUSH1 0xA0 SHL SUB SWAP1 SWAP2 AND DUP2 MSTORE PUSH1 0x20 ADD PUSH2 0x239 JUMP JUMPDEST CALLVALUE DUP1 ISZERO PUSH2 0x406 JUMPI PUSH1 0x0 DUP1 REVERT JUMPDEST POP PUSH2 0x251 PUSH2 0x415 CALLDATASIZE PUSH1 0x4 PUSH2 0xFA8 JUMP JUMPDEST PUSH2 0xA1E JUMP JUMPDEST PUSH2 0x1F0 PUSH2 0xA5C JUMP JUMPDEST CALLVALUE DUP1 ISZERO PUSH2 0x42E JUMPI PUSH1 0x0 DUP1 REVERT JUMPDEST POP PUSH2 0x251 PUSH1 0x6 SLOAD DUP2 JUMP JUMPDEST CALLVALUE DUP1 ISZERO PUSH2 0x444 JUMPI PUSH1 0x0 DUP1 REVERT JUMPDEST POP PUSH2 0x251 PUSH2 0xA85 JUMP JUMPDEST CALLVALUE DUP1 ISZERO PUSH2 0x459 JUMPI PUSH1 0x0 DUP1 REVERT JUMPDEST POP PUSH2 0x1F0 PUSH2 0x468 CALLDATASIZE PUSH1 0x4 PUSH2 0x100F JUMP JUMPDEST PUSH2 0xA95 JUMP JUMPDEST CALLVALUE DUP1 ISZERO PUSH2 0x479 JUMPI PUSH1 0x0 DUP1 REVERT JUMPDEST POP PUSH2 0x251 PUSH1 0xB SLOAD DUP2 JUMP JUMPDEST CALLVALUE DUP1 ISZERO PUSH2 0x48F JUMPI PUSH1 0x0 DUP1 REVERT JUMPDEST POP PUSH2 0x251 PUSH1 0x7 SLOAD DUP2 JUMP JUMPDEST CALLVALUE DUP1 ISZERO PUSH2 0x4A5 JUMPI PUSH1 0x0 DUP1 REVERT JUMPDEST POP PUSH2 0x1F0 PUSH2 0xC92 JUMP JUMPDEST CALLVALUE DUP1 ISZERO PUSH2 0x4BA JUMPI PUSH1 0x0 DUP1 REVERT JUMPDEST POP PUSH1 0x2 SLOAD PUSH2 0x3E2 SWAP1 PUSH1 0x1 PUSH1 0x1 PUSH1 0xA0 SHL SUB AND DUP2 JUMP JUMPDEST CALLVALUE DUP1 ISZERO PUSH2 0x4DA JUMPI PUSH1 0x0 DUP1 REVERT JUMPDEST POP PUSH2 0x251 PUSH2 0x4E9 CALLDATASIZE PUSH1 0x4 PUSH2 0xFA8 JUMP JUMPDEST PUSH2 0xCE5 JUMP JUMPDEST CALLVALUE DUP1 ISZERO PUSH2 0x4FA JUMPI PUSH1 0x0 DUP1 REVERT JUMPDEST POP PUSH2 0x1F0 PUSH2 0xD24 JUMP JUMPDEST CALLVALUE DUP1 ISZERO PUSH2 0x50F JUMPI PUSH1 0x0 DUP1 REVERT JUMPDEST POP PUSH2 0x251 PUSH1 0x9 SLOAD DUP2 JUMP JUMPDEST CALLVALUE DUP1 ISZERO PUSH2 0x525 JUMPI PUSH1 0x0 DUP1 REVERT JUMPDEST POP PUSH2 0x1F0 PUSH2 0x534 CALLDATASIZE PUSH1 0x4 PUSH2 0x1049 JUMP JUMPDEST PUSH2 0xDC2 JUMP JUMPDEST CALLVALUE DUP1 ISZERO PUSH2 0x545 JUMPI PUSH1 0x0 DUP1 REVERT JUMPDEST POP PUSH2 0x1F0 PUSH2 0x554 CALLDATASIZE PUSH1 0x4 PUSH2 0x100F JUMP JUMPDEST PUSH2 0xE50 JUMP JUMPDEST CALLVALUE DUP1 ISZERO PUSH2 0x565 JUMPI PUSH1 0x0 DUP1 REVERT JUMPDEST POP PUSH2 0x251 PUSH1 0xA SLOAD DUP2 JUMP JUMPDEST PUSH2 0x577 PUSH2 0xE90 JUMP JUMPDEST PUSH1 0x6 SLOAD TIMESTAMP LT ISZERO DUP1 ISZERO PUSH2 0x592 JUMPI POP PUSH1 0x9 SLOAD PUSH2 0x58F PUSH2 0xA85 JUMP JUMPDEST GT ISZERO JUMPDEST PUSH2 0x59B JUMPI PUSH1 0x0 DUP1 REVERT JUMPDEST PUSH7 0x2386F26FC10000 CALLVALUE LT ISZERO PUSH2 0x5AF JUMPI PUSH1 0x0 DUP1 REVERT JUMPDEST PUSH2 0x5B7 PUSH2 0xA85 JUMP JUMPDEST DUP4 LT ISZERO DUP1 ISZERO PUSH2 0x5C8 JUMPI POP PUSH1 0x9 SLOAD DUP4 GT ISZERO JUMPDEST PUSH2 0x5D1 JUMPI PUSH1 0x0 DUP1 REVERT JUMPDEST PUSH1 0x0 PUSH2 0x5DC DUP5 PUSH2 0xA1E JUMP JUMPDEST SWAP1 POP DUP1 DUP3 LT ISZERO PUSH2 0x5EB JUMPI PUSH1 0x0 DUP1 REVERT JUMPDEST PUSH1 0x0 DUP5 DUP2 MSTORE PUSH1 0xE PUSH1 0x20 SWAP1 DUP2 MSTORE PUSH1 0x40 DUP1 DUP4 KECCAK256 CALLER DUP5 MSTORE SWAP1 SWAP2 MSTORE DUP2 KECCAK256 DUP1 SLOAD CALLVALUE SWAP3 SWAP1 PUSH2 0x614 SWAP1 DUP5 SWAP1 PUSH2 0x1110 JUMP JUMPDEST SWAP1 SWAP2 SSTORE POP POP PUSH1 0x0 DUP5 DUP2 MSTORE PUSH1 0xD PUSH1 0x20 MSTORE PUSH1 0x40 DUP2 KECCAK256 DUP1 SLOAD CALLVALUE SWAP3 SWAP1 PUSH2 0x637 SWAP1 DUP5 SWAP1 PUSH2 0x1110 JUMP JUMPDEST SWAP1 SWAP2 SSTORE POP POP DUP3 ISZERO PUSH2 0x65D JUMPI PUSH1 0x0 DUP5 DUP2 MSTORE PUSH1 0xD PUSH1 0x20 MSTORE PUSH1 0x40 SWAP1 KECCAK256 SLOAD DUP4 LT ISZERO PUSH2 0x65D JUMPI PUSH1 0x0 DUP1 REVERT JUMPDEST PUSH1 0x40 DUP1 MLOAD DUP6 DUP2 MSTORE CALLVALUE PUSH1 0x20 DUP3 ADD MSTORE CALLER SWAP2 PUSH32 0xE054057D0479C6218D6EC87BE73F88230A7E4E1F064CEE6E7504E2C4CD9D6150 SWAP2 ADD PUSH1 0x40 MLOAD DUP1 SWAP2 SUB SWAP1 LOG2 POP PUSH2 0x6A1 PUSH1 0x1 DUP1 SSTORE JUMP JUMPDEST POP POP POP JUMP JUMPDEST PUSH2 0x6AE PUSH2 0xE90 JUMP JUMPDEST DUP1 PUSH2 0x6B7 PUSH2 0xA85 JUMP JUMPDEST GT PUSH2 0x6C1 JUMPI PUSH1 0x0 DUP1 REVERT JUMPDEST PUSH1 0x0 DUP2 DUP2 MSTORE PUSH1 0xF PUSH1 0x20 SWAP1 DUP2 MSTORE PUSH1 0x40 DUP1 DUP4 KECCAK256 CALLER DUP5 MSTORE SWAP1 SWAP2 MSTORE SWAP1 KECCAK256 SLOAD PUSH1 0xFF AND DUP1 PUSH2 0x6F5 JUMPI POP PUSH1 0x0 DUP2 DUP2 MSTORE PUSH1 0xD PUSH1 0x20 MSTORE PUSH1 0x40 SWAP1 KECCAK256 SLOAD ISZERO JUMPDEST PUSH2 0x81D JUMPI PUSH1 0x0 DUP2 DUP2 MSTORE PUSH1 0xD PUSH1 0x20 SWAP1 DUP2 MSTORE PUSH1 0x40 DUP1 DUP4 KECCAK256 SLOAD PUSH1 0xE DUP4 MSTORE DUP2 DUP5 KECCAK256 CALLER DUP6 MSTORE SWAP1 SWAP3 MSTORE DUP3 KECCAK256 SLOAD SWAP1 SWAP2 PUSH2 0x726 DUP5 PUSH2 0x8B7 JUMP JUMPDEST SWAP1 POP PUSH1 0x0 DUP4 PUSH2 0x735 DUP5 DUP5 PUSH2 0x1123 JUMP JUMPDEST PUSH2 0x73F SWAP2 SWAP1 PUSH2 0x113A JUMP JUMPDEST PUSH1 0x0 DUP7 DUP2 MSTORE PUSH1 0xF PUSH1 0x20 SWAP1 DUP2 MSTORE PUSH1 0x40 DUP1 DUP4 KECCAK256 CALLER DUP1 DUP6 MSTORE SWAP3 MSTORE SWAP2 DUP3 SWAP1 KECCAK256 DUP1 SLOAD PUSH1 0xFF NOT AND PUSH1 0x1 OR SWAP1 SSTORE PUSH1 0x2 SLOAD SWAP2 MLOAD PUSH4 0xA9059CBB PUSH1 0xE0 SHL DUP2 MSTORE PUSH1 0x4 DUP2 ADD SWAP2 SWAP1 SWAP2 MSTORE PUSH1 0x24 DUP2 ADD DUP4 SWAP1 MSTORE SWAP2 SWAP3 POP PUSH1 0x1 PUSH1 0x1 PUSH1 0xA0 SHL SUB AND SWAP1 PUSH4 0xA9059CBB SWAP1 PUSH1 0x44 ADD PUSH1 0x20 PUSH1 0x40 MLOAD DUP1 DUP4 SUB DUP2 PUSH1 0x0 DUP8 GAS CALL ISZERO DUP1 ISZERO PUSH2 0x7B8 JUMPI RETURNDATASIZE PUSH1 0x0 DUP1 RETURNDATACOPY RETURNDATASIZE PUSH1 0x0 REVERT JUMPDEST POP POP POP POP PUSH1 0x40 MLOAD RETURNDATASIZE PUSH1 0x1F NOT PUSH1 0x1F DUP3 ADD AND DUP3 ADD DUP1 PUSH1 0x40 MSTORE POP DUP2 ADD SWAP1 PUSH2 0x7DC SWAP2 SWAP1 PUSH2 0x115C JUMP JUMPDEST POP PUSH1 0x40 DUP1 MLOAD DUP7 DUP2 MSTORE PUSH1 0x20 DUP2 ADD DUP4 SWAP1 MSTORE CALLER SWAP2 PUSH32 0x51223FDC0A25891366FB358B4AF9FE3C381B1566E287C61A29D01C8A173FE4F4 SWAP2 ADD PUSH1 0x40 MLOAD DUP1 SWAP2 SUB SWAP1 LOG2 POP POP POP POP JUMPDEST PUSH2 0x826 PUSH1 0x1 DUP1 SSTORE JUMP JUMPDEST POP JUMP JUMPDEST PUSH1 0x5 DUP1 SLOAD PUSH2 0x836 SWAP1 PUSH2 0x117E JUMP JUMPDEST DUP1 PUSH1 0x1F ADD PUSH1 0x20 DUP1 SWAP2 DIV MUL PUSH1 0x20 ADD PUSH1 0x40 MLOAD SWAP1 DUP2 ADD PUSH1 0x40 MSTORE DUP1 SWAP3 SWAP2 SWAP1 DUP2 DUP2 MSTORE PUSH1 0x20 ADD DUP3 DUP1 SLOAD PUSH2 0x862 SWAP1 PUSH2 0x117E JUMP JUMPDEST DUP1 ISZERO PUSH2 0x8AF JUMPI DUP1 PUSH1 0x1F LT PUSH2 0x884 JUMPI PUSH2 0x100 DUP1 DUP4 SLOAD DIV MUL DUP4 MSTORE SWAP2 PUSH1 0x20 ADD SWAP2 PUSH2 0x8AF JUMP JUMPDEST DUP3 ADD SWAP2 SWAP1 PUSH1 0x0 MSTORE PUSH1 0x20 PUSH1 0x0 KECCAK256 SWAP1 JUMPDEST DUP2 SLOAD DUP2 MSTORE SWAP1 PUSH1 0x1 ADD SWAP1 PUSH1 0x20 ADD DUP1 DUP4 GT PUSH2 0x892 JUMPI DUP3 SWAP1 SUB PUSH1 0x1F AND DUP3 ADD SWAP2 JUMPDEST POP POP POP POP POP DUP2 JUMP JUMPDEST PUSH1 0x0 DUP2 ISZERO PUSH2 0x8C7 JUMPI PUSH1 0xA SLOAD PUSH2 0x8CB JUMP JUMPDEST PUSH1 0x7 SLOAD JUMPDEST SWAP3 SWAP2 POP POP JUMP JUMPDEST PUSH2 0x8D9 PUSH2 0xEBA JUMP JUMPDEST PUSH1 0x9 SLOAD PUSH2 0x8E7 SWAP1 PUSH1 0x1 PUSH2 0x1110 JUMP JUMPDEST PUSH2 0x8EF PUSH2 0xA85 JUMP JUMPDEST GT PUSH2 0x8F9 JUMPI PUSH1 0x0 DUP1 REVERT JUMPDEST PUSH1 0x2 SLOAD PUSH1 0x40 MLOAD PUSH4 0x70A08231 PUSH1 0xE0 SHL DUP2 MSTORE ADDRESS PUSH1 0x4 DUP3 ADD MSTORE PUSH1 0x0 SWAP2 PUSH1 0x1 PUSH1 0x1 PUSH1 0xA0 SHL SUB AND SWAP1 PUSH4 0x70A08231 SWAP1 PUSH1 0x24 ADD PUSH1 0x20 PUSH1 0x40 MLOAD DUP1 DUP4 SUB DUP2 DUP7 GAS STATICCALL ISZERO DUP1 ISZERO PUSH2 0x942 JUMPI RETURNDATASIZE PUSH1 0x0 DUP1 RETURNDATACOPY RETURNDATASIZE PUSH1 0x0 REVERT JUMPDEST POP POP POP POP PUSH1 0x40 MLOAD RETURNDATASIZE PUSH1 0x1F NOT PUSH1 0x1F DUP3 ADD AND DUP3 ADD DUP1 PUSH1 0x40 MSTORE POP DUP2 ADD SWAP1 PUSH2 0x966 SWAP2 SWAP1 PUSH2 0x11B8 JUMP JUMPDEST PUSH1 0x2 SLOAD PUSH1 0x40 MLOAD PUSH4 0x852CD8D PUSH1 0xE3 SHL DUP2 MSTORE PUSH1 0x4 DUP2 ADD DUP4 SWAP1 MSTORE SWAP2 SWAP3 POP PUSH1 0x1 PUSH1 0x1 PUSH1 0xA0 SHL SUB AND SWAP1 PUSH4 0x42966C68 SWAP1 PUSH1 0x24 ADD PUSH1 0x0 PUSH1 0x40 MLOAD DUP1 DUP4 SUB DUP2 PUSH1 0x0 DUP8 DUP1 EXTCODESIZE ISZERO DUP1 ISZERO PUSH2 0x9AD JUMPI PUSH1 0x0 DUP1 REVERT JUMPDEST POP GAS CALL ISZERO DUP1 ISZERO PUSH2 0x9C1 JUMPI RETURNDATASIZE PUSH1 0x0 DUP1 RETURNDATACOPY RETURNDATASIZE PUSH1 0x0 REVERT JUMPDEST POP POP PUSH1 0x40 MLOAD PUSH32 0xAD487F3C412409F5B36D6B5AE6F3BB9C34E15234B3E9F101BB6EF0D584593C61 SWAP3 POP PUSH1 0x0 SWAP2 POP LOG1 POP JUMP JUMPDEST PUSH1 0x10 PUSH1 0x20 MSTORE PUSH1 0x0 SWAP1 DUP2 MSTORE PUSH1 0x40 SWAP1 KECCAK256 DUP1 SLOAD PUSH2 0x836 SWAP1 PUSH2 0x117E JUMP JUMPDEST PUSH2 0xA12 PUSH2 0xEBA JUMP JUMPDEST PUSH2 0xA1C PUSH1 0x0 PUSH2 0xEE7 JUMP JUMPDEST JUMP JUMPDEST PUSH1 0x0 PUSH2 0xA2B DUP3 PUSH1 0x64 PUSH2 0x12B5 JUMP JUMPDEST DUP3 PUSH1 0xC SLOAD PUSH1 0x64 PUSH2 0xA3B SWAP2 SWAP1 PUSH2 0x1110 JUMP JUMPDEST PUSH2 0xA45 SWAP2 SWAP1 PUSH2 0x12B5 JUMP JUMPDEST PUSH1 0xB SLOAD PUSH2 0xA52 SWAP2 SWAP1 PUSH2 0x1123 JUMP JUMPDEST PUSH2 0x8CB SWAP2 SWAP1 PUSH2 0x113A JUMP JUMPDEST PUSH1 0x0 PUSH2 0xA66 PUSH2 0xA85 JUMP JUMPDEST SWAP1 POP PUSH1 0x0 PUSH2 0xA73 DUP3 PUSH2 0xA1E JUMP JUMPDEST SWAP1 POP PUSH2 0xA81 DUP3 PUSH1 0x0 DUP4 PUSH2 0x56F JUMP JUMPDEST POP POP JUMP JUMPDEST PUSH1 0x0 PUSH2 0xA90 TIMESTAMP PUSH2 0xCE5 JUMP JUMPDEST SWAP1 POP SWAP1 JUMP JUMPDEST PUSH2 0xA9D PUSH2 0xEBA JUMP JUMPDEST PUSH1 0x2 SLOAD PUSH1 0x1 PUSH1 0x1 PUSH1 0xA0 SHL SUB AND ISZERO PUSH2 0xAB3 JUMPI PUSH1 0x0 DUP1 REVERT JUMPDEST DUP1 PUSH1 0x1 PUSH1 0x1 PUSH1 0xA0 SHL SUB AND PUSH4 0x18160DDD PUSH1 0x40 MLOAD DUP2 PUSH4 0xFFFFFFFF AND PUSH1 0xE0 SHL DUP2 MSTORE PUSH1 0x4 ADD PUSH1 0x20 PUSH1 0x40 MLOAD DUP1 DUP4 SUB DUP2 DUP7 GAS STATICCALL ISZERO DUP1 ISZERO PUSH2 0xAF1 JUMPI RETURNDATASIZE PUSH1 0x0 DUP1 RETURNDATACOPY RETURNDATASIZE PUSH1 0x0 REVERT JUMPDEST POP POP POP POP PUSH1 0x40 MLOAD RETURNDATASIZE PUSH1 0x1F NOT PUSH1 0x1F DUP3 ADD AND DUP3 ADD DUP1 PUSH1 0x40 MSTORE POP DUP2 ADD SWAP1 PUSH2 0xB15 SWAP2 SWAP1 PUSH2 0x11B8 JUMP JUMPDEST ISZERO PUSH2 0xB1F JUMPI PUSH1 0x0 DUP1 REVERT JUMPDEST PUSH1 0x2 DUP1 SLOAD PUSH1 0x1 PUSH1 0x1 PUSH1 0xA0 SHL SUB NOT AND PUSH1 0x1 PUSH1 0x1 PUSH1 0xA0 SHL SUB DUP4 AND SWAP1 DUP2 OR SWAP1 SWAP2 SSTORE PUSH1 0x3 SLOAD PUSH1 0x40 MLOAD PUSH4 0x40C10F19 PUSH1 0xE0 SHL DUP2 MSTORE ADDRESS PUSH1 0x4 DUP3 ADD MSTORE PUSH1 0x24 DUP2 ADD SWAP2 SWAP1 SWAP2 MSTORE PUSH4 0x40C10F19 SWAP1 PUSH1 0x44 ADD PUSH1 0x0 PUSH1 0x40 MLOAD DUP1 DUP4 SUB DUP2 PUSH1 0x0 DUP8 DUP1 EXTCODESIZE ISZERO DUP1 ISZERO PUSH2 0xB7E JUMPI PUSH1 0x0 DUP1 REVERT JUMPDEST POP GAS CALL ISZERO DUP1 ISZERO PUSH2 0xB92 JUMPI RETURNDATASIZE PUSH1 0x0 DUP1 RETURNDATACOPY RETURNDATASIZE PUSH1 0x0 REVERT JUMPDEST POP POP PUSH1 0x2 SLOAD PUSH1 0x4 DUP1 SLOAD PUSH1 0x40 MLOAD PUSH4 0xA9059CBB PUSH1 0xE0 SHL DUP2 MSTORE PUSH20 0x9011E888251AB053B7BD1CDB598DB4F9DED94714 SWAP3 DUP2 ADD DUP4 SWAP1 MSTORE PUSH1 0x24 DUP2 ADD SWAP2 SWAP1 SWAP2 MSTORE SWAP1 SWAP4 POP PUSH1 0x1 PUSH1 0x1 PUSH1 0xA0 SHL SUB SWAP1 SWAP2 AND SWAP2 POP PUSH4 0xA9059CBB SWAP1 PUSH1 0x44 ADD PUSH1 0x20 PUSH1 0x40 MLOAD DUP1 DUP4 SUB DUP2 PUSH1 0x0 DUP8 GAS CALL ISZERO DUP1 ISZERO PUSH2 0xC03 JUMPI RETURNDATASIZE PUSH1 0x0 DUP1 RETURNDATACOPY RETURNDATASIZE PUSH1 0x0 REVERT JUMPDEST POP POP POP POP PUSH1 0x40 MLOAD RETURNDATASIZE PUSH1 0x1F NOT PUSH1 0x1F DUP3 ADD AND DUP3 ADD DUP1 PUSH1 0x40 MSTORE POP DUP2 ADD SWAP1 PUSH2 0xC27 SWAP2 SWAP1 PUSH2 0x115C JUMP JUMPDEST POP PUSH1 0x1 PUSH1 0x1 PUSH1 0xA0 SHL SUB DUP2 AND PUSH1 0x0 SWAP1 DUP2 MSTORE PUSH1 0x10 PUSH1 0x20 MSTORE PUSH1 0x40 SWAP1 KECCAK256 PUSH2 0xC4B PUSH1 0x5 DUP3 PUSH2 0x130F JUMP JUMPDEST POP DUP1 PUSH1 0x1 PUSH1 0x1 PUSH1 0xA0 SHL SUB AND PUSH32 0xD80364BA2CBB1E827AB8ADAC9651CDFC27FB7B61C0A95663CB80B82D7636AD22 PUSH1 0x5 PUSH1 0x40 MLOAD PUSH2 0xC86 SWAP2 SWAP1 PUSH2 0x13F0 JUMP JUMPDEST PUSH1 0x40 MLOAD DUP1 SWAP2 SUB SWAP1 LOG2 POP POP JUMP JUMPDEST PUSH1 0x0 PUSH2 0xC9C PUSH2 0xA85 JUMP JUMPDEST SWAP1 POP PUSH1 0x0 JUMPDEST DUP2 DUP2 LT ISZERO PUSH2 0xA81 JUMPI PUSH1 0x0 DUP2 DUP2 MSTORE PUSH1 0xF PUSH1 0x20 SWAP1 DUP2 MSTORE PUSH1 0x40 DUP1 DUP4 KECCAK256 CALLER DUP5 MSTORE SWAP1 SWAP2 MSTORE SWAP1 KECCAK256 SLOAD PUSH1 0xFF AND PUSH2 0xCD3 JUMPI PUSH2 0xCD3 DUP2 PUSH2 0x6A6 JUMP JUMPDEST DUP1 PUSH2 0xCDD DUP2 PUSH2 0x147B JUMP JUMPDEST SWAP2 POP POP PUSH2 0xCA1 JUMP JUMPDEST PUSH1 0x0 PUSH1 0x8 SLOAD DUP3 LT PUSH2 0xD1C JUMPI PUSH3 0x15180 PUSH1 0x8 SLOAD DUP4 PUSH2 0xD02 SWAP2 SWAP1 PUSH2 0x1494 JUMP JUMPDEST PUSH2 0xD0C SWAP2 SWAP1 PUSH2 0x113A JUMP JUMPDEST PUSH2 0xD17 SWAP1 PUSH1 0x1 PUSH2 0x1110 JUMP JUMPDEST PUSH2 0x8CB JUMP JUMPDEST PUSH1 0x0 SWAP3 SWAP2 POP POP JUMP JUMPDEST PUSH2 0xD2C PUSH2 0xEBA JUMP JUMPDEST PUSH1 0x0 PUSH2 0xD36 PUSH2 0xA85 JUMP JUMPDEST GT PUSH2 0xD40 JUMPI PUSH1 0x0 DUP1 REVERT JUMPDEST SELFBALANCE PUSH2 0xD53 PUSH1 0x0 SLOAD PUSH1 0x1 PUSH1 0x1 PUSH1 0xA0 SHL SUB AND SWAP1 JUMP JUMPDEST PUSH1 0x1 PUSH1 0x1 PUSH1 0xA0 SHL SUB AND PUSH2 0x8FC DUP3 SWAP1 DUP2 ISZERO MUL SWAP1 PUSH1 0x40 MLOAD PUSH1 0x0 PUSH1 0x40 MLOAD DUP1 DUP4 SUB DUP2 DUP6 DUP9 DUP9 CALL SWAP4 POP POP POP POP ISZERO DUP1 ISZERO PUSH2 0xD8B JUMPI RETURNDATASIZE PUSH1 0x0 DUP1 RETURNDATACOPY RETURNDATASIZE PUSH1 0x0 REVERT JUMPDEST POP PUSH1 0x40 MLOAD DUP2 DUP2 MSTORE PUSH32 0x4CEBA015D961D93F1D6825703B730A8BA05619C005DFD8073AEE773DC6725FBB SWAP1 PUSH1 0x20 ADD PUSH1 0x40 MLOAD DUP1 SWAP2 SUB SWAP1 LOG1 POP JUMP JUMPDEST PUSH1 0x9 SLOAD PUSH2 0xDD0 SWAP1 PUSH1 0x1 PUSH2 0x1110 JUMP JUMPDEST PUSH2 0xDD8 PUSH2 0xA85 JUMP JUMPDEST GT ISZERO PUSH2 0xDE3 JUMPI PUSH1 0x0 DUP1 REVERT JUMPDEST PUSH1 0x40 DUP2 MLOAD GT ISZERO PUSH2 0xDF2 JUMPI PUSH1 0x0 DUP1 REVERT JUMPDEST CALLER PUSH1 0x0 SWAP1 DUP2 MSTORE PUSH1 0x10 PUSH1 0x20 MSTORE PUSH1 0x40 SWAP1 KECCAK256 PUSH2 0xE0B DUP3 DUP3 PUSH2 0x14A7 JUMP JUMPDEST POP CALLER PUSH1 0x1 PUSH1 0x1 PUSH1 0xA0 SHL SUB AND PUSH32 0xD80364BA2CBB1E827AB8ADAC9651CDFC27FB7B61C0A95663CB80B82D7636AD22 DUP3 PUSH1 0x40 MLOAD PUSH2 0xE45 SWAP2 SWAP1 PUSH2 0xFC1 JUMP JUMPDEST PUSH1 0x40 MLOAD DUP1 SWAP2 SUB SWAP1 LOG2 POP JUMP JUMPDEST PUSH2 0xE58 PUSH2 0xEBA JUMP JUMPDEST PUSH1 0x1 PUSH1 0x1 PUSH1 0xA0 SHL SUB DUP2 AND PUSH2 0xE87 JUMPI PUSH1 0x40 MLOAD PUSH4 0x1E4FBDF7 PUSH1 0xE0 SHL DUP2 MSTORE PUSH1 0x0 PUSH1 0x4 DUP3 ADD MSTORE PUSH1 0x24 ADD JUMPDEST PUSH1 0x40 MLOAD DUP1 SWAP2 SUB SWAP1 REVERT JUMPDEST PUSH2 0x826 DUP2 PUSH2 0xEE7 JUMP JUMPDEST PUSH1 0x2 PUSH1 0x1 SLOAD SUB PUSH2 0xEB3 JUMPI PUSH1 0x40 MLOAD PUSH4 0x3EE5AEB5 PUSH1 0xE0 SHL DUP2 MSTORE PUSH1 0x4 ADD PUSH1 0x40 MLOAD DUP1 SWAP2 SUB SWAP1 REVERT JUMPDEST PUSH1 0x2 PUSH1 0x1 SSTORE JUMP JUMPDEST PUSH1 0x0 SLOAD PUSH1 0x1 PUSH1 0x1 PUSH1 0xA0 SHL SUB AND CALLER EQ PUSH2 0xA1C JUMPI PUSH1 0x40 MLOAD PUSH4 0x118CDAA7 PUSH1 0xE0 SHL DUP2 MSTORE CALLER PUSH1 0x4 DUP3 ADD MSTORE PUSH1 0x24 ADD PUSH2 0xE7E JUMP JUMPDEST PUSH1 0x0 DUP1 SLOAD PUSH1 0x1 PUSH1 0x1 PUSH1 0xA0 SHL SUB DUP4 DUP2 AND PUSH1 0x1 PUSH1 0x1 PUSH1 0xA0 SHL SUB NOT DUP4 AND DUP2 OR DUP5 SSTORE PUSH1 0x40 MLOAD SWAP2 SWAP1 SWAP3 AND SWAP3 DUP4 SWAP2 PUSH32 0x8BE0079C531659141344CD1FD0A4F28419497F9722A3DAAFE3B4186F6B6457E0 SWAP2 SWAP1 LOG3 POP POP JUMP JUMPDEST PUSH1 0x0 DUP1 PUSH1 0x0 PUSH1 0x60 DUP5 DUP7 SUB SLT ISZERO PUSH2 0xF4C JUMPI PUSH1 0x0 DUP1 REVERT JUMPDEST POP POP DUP2 CALLDATALOAD SWAP4 PUSH1 0x20 DUP4 ADD CALLDATALOAD SWAP4 POP PUSH1 0x40 SWAP1 SWAP3 ADD CALLDATALOAD SWAP2 SWAP1 POP JUMP JUMPDEST PUSH1 0x1 PUSH1 0x1 PUSH1 0xA0 SHL SUB DUP2 AND DUP2 EQ PUSH2 0x826 JUMPI PUSH1 0x0 DUP1 REVERT JUMPDEST PUSH1 0x0 DUP1 PUSH1 0x40 DUP4 DUP6 SUB SLT ISZERO PUSH2 0xF8B JUMPI PUSH1 0x0 DUP1 REVERT JUMPDEST DUP3 CALLDATALOAD SWAP2 POP PUSH1 0x20 DUP4 ADD CALLDATALOAD PUSH2 0xF9D DUP2 PUSH2 0xF63 JUMP JUMPDEST DUP1 SWAP2 POP POP SWAP3 POP SWAP3 SWAP1 POP JUMP JUMPDEST PUSH1 0x0 PUSH1 0x20 DUP3 DUP5 SUB SLT ISZERO PUSH2 0xFBA JUMPI PUSH1 0x0 DUP1 REVERT JUMPDEST POP CALLDATALOAD SWAP2 SWAP1 POP JUMP JUMPDEST PUSH1 0x0 PUSH1 0x20 DUP1 DUP4 MSTORE DUP4 MLOAD DUP1 DUP3 DUP6 ADD MSTORE PUSH1 0x0 JUMPDEST DUP2 DUP2 LT ISZERO PUSH2 0xFEE JUMPI DUP6 DUP2 ADD DUP4 ADD MLOAD DUP6 DUP3 ADD PUSH1 0x40 ADD MSTORE DUP3 ADD PUSH2 0xFD2 JUMP JUMPDEST POP PUSH1 0x0 PUSH1 0x40 DUP3 DUP7 ADD ADD MSTORE PUSH1 0x40 PUSH1 0x1F NOT PUSH1 0x1F DUP4 ADD AND DUP6 ADD ADD SWAP3 POP POP POP SWAP3 SWAP2 POP POP JUMP JUMPDEST PUSH1 0x0 PUSH1 0x20 DUP3 DUP5 SUB SLT ISZERO PUSH2 0x1021 JUMPI PUSH1 0x0 DUP1 REVERT JUMPDEST DUP2 CALLDATALOAD PUSH2 0x102C DUP2 PUSH2 0xF63 JUMP JUMPDEST SWAP4 SWAP3 POP POP POP JUMP JUMPDEST PUSH4 0x4E487B71 PUSH1 0xE0 SHL PUSH1 0x0 MSTORE PUSH1 0x41 PUSH1 0x4 MSTORE PUSH1 0x24 PUSH1 0x0 REVERT JUMPDEST PUSH1 0x0 PUSH1 0x20 DUP3 DUP5 SUB SLT ISZERO PUSH2 0x105B JUMPI PUSH1 0x0 DUP1 REVERT JUMPDEST DUP2 CALLDATALOAD PUSH8 0xFFFFFFFFFFFFFFFF DUP1 DUP3 GT ISZERO PUSH2 0x1073 JUMPI PUSH1 0x0 DUP1 REVERT JUMPDEST DUP2 DUP5 ADD SWAP2 POP DUP5 PUSH1 0x1F DUP4 ADD SLT PUSH2 0x1087 JUMPI PUSH1 0x0 DUP1 REVERT JUMPDEST DUP2 CALLDATALOAD DUP2 DUP2 GT ISZERO PUSH2 0x1099 JUMPI PUSH2 0x1099 PUSH2 0x1033 JUMP JUMPDEST PUSH1 0x40 MLOAD PUSH1 0x1F DUP3 ADD PUSH1 0x1F NOT SWAP1 DUP2 AND PUSH1 0x3F ADD AND DUP2 ADD SWAP1 DUP4 DUP3 GT DUP2 DUP4 LT OR ISZERO PUSH2 0x10C1 JUMPI PUSH2 0x10C1 PUSH2 0x1033 JUMP JUMPDEST DUP2 PUSH1 0x40 MSTORE DUP3 DUP2 MSTORE DUP8 PUSH1 0x20 DUP5 DUP8 ADD ADD GT ISZERO PUSH2 0x10DA JUMPI PUSH1 0x0 DUP1 REVERT JUMPDEST DUP3 PUSH1 0x20 DUP7 ADD PUSH1 0x20 DUP4 ADD CALLDATACOPY PUSH1 0x0 SWAP3 DUP2 ADD PUSH1 0x20 ADD SWAP3 SWAP1 SWAP3 MSTORE POP SWAP6 SWAP5 POP POP POP POP POP JUMP JUMPDEST PUSH4 0x4E487B71 PUSH1 0xE0 SHL PUSH1 0x0 MSTORE PUSH1 0x11 PUSH1 0x4 MSTORE PUSH1 0x24 PUSH1 0x0 REVERT JUMPDEST DUP1 DUP3 ADD DUP1 DUP3 GT ISZERO PUSH2 0x8CB JUMPI PUSH2 0x8CB PUSH2 0x10FA JUMP JUMPDEST DUP1 DUP3 MUL DUP2 ISZERO DUP3 DUP3 DIV DUP5 EQ OR PUSH2 0x8CB JUMPI PUSH2 0x8CB PUSH2 0x10FA JUMP JUMPDEST PUSH1 0x0 DUP3 PUSH2 0x1157 JUMPI PUSH4 0x4E487B71 PUSH1 0xE0 SHL PUSH1 0x0 MSTORE PUSH1 0x12 PUSH1 0x4 MSTORE PUSH1 0x24 PUSH1 0x0 REVERT JUMPDEST POP DIV SWAP1 JUMP JUMPDEST PUSH1 0x0 PUSH1 0x20 DUP3 DUP5 SUB SLT ISZERO PUSH2 0x116E JUMPI PUSH1 0x0 DUP1 REVERT JUMPDEST DUP2 MLOAD DUP1 ISZERO ISZERO DUP2 EQ PUSH2 0x102C JUMPI PUSH1 0x0 DUP1 REVERT JUMPDEST PUSH1 0x1 DUP2 DUP2 SHR SWAP1 DUP3 AND DUP1 PUSH2 0x1192 JUMPI PUSH1 0x7F DUP3 AND SWAP2 POP JUMPDEST PUSH1 0x20 DUP3 LT DUP2 SUB PUSH2 0x11B2 JUMPI PUSH4 0x4E487B71 PUSH1 0xE0 SHL PUSH1 0x0 MSTORE PUSH1 0x22 PUSH1 0x4 MSTORE PUSH1 0x24 PUSH1 0x0 REVERT JUMPDEST POP SWAP2 SWAP1 POP JUMP JUMPDEST PUSH1 0x0 PUSH1 0x20 DUP3 DUP5 SUB SLT ISZERO PUSH2 0x11CA JUMPI PUSH1 0x0 DUP1 REVERT JUMPDEST POP MLOAD SWAP2 SWAP1 POP JUMP JUMPDEST PUSH1 0x1 DUP2 DUP2 JUMPDEST DUP1 DUP6 GT ISZERO PUSH2 0x120C JUMPI DUP2 PUSH1 0x0 NOT DIV DUP3 GT ISZERO PUSH2 0x11F2 JUMPI PUSH2 0x11F2 PUSH2 0x10FA JUMP JUMPDEST DUP1 DUP6 AND ISZERO PUSH2 0x11FF JUMPI SWAP2 DUP2 MUL SWAP2 JUMPDEST SWAP4 DUP5 SHR SWAP4 SWAP1 DUP1 MUL SWAP1 PUSH2 0x11D6 JUMP JUMPDEST POP SWAP3 POP SWAP3 SWAP1 POP JUMP JUMPDEST PUSH1 0x0 DUP3 PUSH2 0x1223 JUMPI POP PUSH1 0x1 PUSH2 0x8CB JUMP JUMPDEST DUP2 PUSH2 0x1230 JUMPI POP PUSH1 0x0 PUSH2 0x8CB JUMP JUMPDEST DUP2 PUSH1 0x1 DUP2 EQ PUSH2 0x1246 JUMPI PUSH1 0x2 DUP2 EQ PUSH2 0x1250 JUMPI PUSH2 0x126C JUMP JUMPDEST PUSH1 0x1 SWAP2 POP POP PUSH2 0x8CB JUMP JUMPDEST PUSH1 0xFF DUP5 GT ISZERO PUSH2 0x1261 JUMPI PUSH2 0x1261 PUSH2 0x10FA JUMP JUMPDEST POP POP PUSH1 0x1 DUP3 SHL PUSH2 0x8CB JUMP JUMPDEST POP PUSH1 0x20 DUP4 LT PUSH2 0x133 DUP4 LT AND PUSH1 0x4E DUP5 LT PUSH1 0xB DUP5 LT AND OR ISZERO PUSH2 0x128F JUMPI POP DUP2 DUP2 EXP PUSH2 0x8CB JUMP JUMPDEST PUSH2 0x1299 DUP4 DUP4 PUSH2 0x11D1 JUMP JUMPDEST DUP1 PUSH1 0x0 NOT DIV DUP3 GT ISZERO PUSH2 0x12AD JUMPI PUSH2 0x12AD PUSH2 0x10FA JUMP JUMPDEST MUL SWAP4 SWAP3 POP POP POP JUMP JUMPDEST PUSH1 0x0 PUSH2 0x102C DUP4 DUP4 PUSH2 0x1214 JUMP JUMPDEST PUSH1 0x1F DUP3 GT ISZERO PUSH2 0x6A1 JUMPI PUSH1 0x0 DUP2 DUP2 MSTORE PUSH1 0x20 DUP2 KECCAK256 PUSH1 0x1F DUP6 ADD PUSH1 0x5 SHR DUP2 ADD PUSH1 0x20 DUP7 LT ISZERO PUSH2 0x12E8 JUMPI POP DUP1 JUMPDEST PUSH1 0x1F DUP6 ADD PUSH1 0x5 SHR DUP3 ADD SWAP2 POP JUMPDEST DUP2 DUP2 LT ISZERO PUSH2 0x1307 JUMPI DUP3 DUP2 SSTORE PUSH1 0x1 ADD PUSH2 0x12F4 JUMP JUMPDEST POP POP POP POP POP POP JUMP JUMPDEST DUP2 DUP2 SUB PUSH2 0x131A JUMPI POP POP JUMP JUMPDEST PUSH2 0x1324 DUP3 SLOAD PUSH2 0x117E JUMP JUMPDEST PUSH8 0xFFFFFFFFFFFFFFFF DUP2 GT ISZERO PUSH2 0x133C JUMPI PUSH2 0x133C PUSH2 0x1033 JUMP JUMPDEST PUSH2 0x1350 DUP2 PUSH2 0x134A DUP5 SLOAD PUSH2 0x117E JUMP JUMPDEST DUP5 PUSH2 0x12C1 JUMP JUMPDEST PUSH1 0x0 PUSH1 0x1F DUP3 GT PUSH1 0x1 DUP2 EQ PUSH2 0x1384 JUMPI PUSH1 0x0 DUP4 ISZERO PUSH2 0x136C JUMPI POP DUP5 DUP3 ADD SLOAD JUMPDEST PUSH1 0x0 NOT PUSH1 0x3 DUP6 SWAP1 SHL SHR NOT AND PUSH1 0x1 DUP5 SWAP1 SHL OR DUP5 SSTORE PUSH2 0x13E9 JUMP JUMPDEST PUSH1 0x0 DUP6 DUP2 MSTORE PUSH1 0x20 SWAP1 KECCAK256 PUSH1 0x1F NOT DUP5 AND SWAP1 PUSH1 0x0 DUP7 DUP2 MSTORE PUSH1 0x20 SWAP1 KECCAK256 DUP5 JUMPDEST DUP4 DUP2 LT ISZERO PUSH2 0x13BE JUMPI DUP3 DUP7 ADD SLOAD DUP3 SSTORE PUSH1 0x1 SWAP6 DUP7 ADD SWAP6 SWAP1 SWAP2 ADD SWAP1 PUSH1 0x20 ADD PUSH2 0x139E JUMP JUMPDEST POP DUP6 DUP4 LT ISZERO PUSH2 0x13DC JUMPI DUP2 DUP6 ADD SLOAD PUSH1 0x0 NOT PUSH1 0x3 DUP9 SWAP1 SHL PUSH1 0xF8 AND SHR NOT AND DUP2 SSTORE JUMPDEST POP POP POP PUSH1 0x1 DUP4 PUSH1 0x1 SHL ADD DUP5 SSTORE JUMPDEST POP POP POP POP POP JUMP JUMPDEST PUSH1 0x0 PUSH1 0x20 DUP1 DUP4 MSTORE PUSH1 0x0 DUP5 SLOAD PUSH2 0x1404 DUP2 PUSH2 0x117E JUMP JUMPDEST DUP1 DUP5 DUP8 ADD MSTORE PUSH1 0x40 PUSH1 0x1 DUP1 DUP5 AND PUSH1 0x0 DUP2 EQ PUSH2 0x1425 JUMPI PUSH1 0x1 DUP2 EQ PUSH2 0x143F JUMPI PUSH2 0x146D JUMP JUMPDEST PUSH1 0xFF NOT DUP6 AND DUP10 DUP5 ADD MSTORE DUP4 ISZERO ISZERO PUSH1 0x5 SHL DUP10 ADD DUP4 ADD SWAP6 POP PUSH2 0x146D JUMP JUMPDEST DUP10 PUSH1 0x0 MSTORE DUP7 PUSH1 0x0 KECCAK256 PUSH1 0x0 JUMPDEST DUP6 DUP2 LT ISZERO PUSH2 0x1465 JUMPI DUP2 SLOAD DUP12 DUP3 ADD DUP7 ADD MSTORE SWAP1 DUP4 ADD SWAP1 DUP9 ADD PUSH2 0x144A JUMP JUMPDEST DUP11 ADD DUP5 ADD SWAP7 POP POP JUMPDEST POP SWAP4 SWAP9 SWAP8 POP POP POP POP POP POP POP POP JUMP JUMPDEST PUSH1 0x0 PUSH1 0x1 DUP3 ADD PUSH2 0x148D JUMPI PUSH2 0x148D PUSH2 0x10FA JUMP JUMPDEST POP PUSH1 0x1 ADD SWAP1 JUMP JUMPDEST DUP2 DUP2 SUB DUP2 DUP2 GT ISZERO PUSH2 0x8CB JUMPI PUSH2 0x8CB PUSH2 0x10FA JUMP JUMPDEST DUP2 MLOAD PUSH8 0xFFFFFFFFFFFFFFFF DUP2 GT ISZERO PUSH2 0x14C1 JUMPI PUSH2 0x14C1 PUSH2 0x1033 JUMP JUMPDEST PUSH2 0x14CF DUP2 PUSH2 0x134A DUP5 SLOAD PUSH2 0x117E JUMP JUMPDEST PUSH1 0x20 DUP1 PUSH1 0x1F DUP4 GT PUSH1 0x1 DUP2 EQ PUSH2 0x1504 JUMPI PUSH1 0x0 DUP5 ISZERO PUSH2 0x14EC JUMPI POP DUP6 DUP4 ADD MLOAD JUMPDEST PUSH1 0x0 NOT PUSH1 0x3 DUP7 SWAP1 SHL SHR NOT AND PUSH1 0x1 DUP6 SWAP1 SHL OR DUP6 SSTORE PUSH2 0x1307 JUMP JUMPDEST PUSH1 0x0 DUP6 DUP2 MSTORE PUSH1 0x20 DUP2 KECCAK256 PUSH1 0x1F NOT DUP7 AND SWAP2 JUMPDEST DUP3 DUP2 LT ISZERO PUSH2 0x1533 JUMPI DUP9 DUP7 ADD MLOAD DUP3 SSTORE SWAP5 DUP5 ADD SWAP5 PUSH1 0x1 SWAP1 SWAP2 ADD SWAP1 DUP5 ADD PUSH2 0x1514 JUMP JUMPDEST POP DUP6 DUP3 LT ISZERO PUSH2 0x1551 JUMPI DUP8 DUP6 ADD MLOAD PUSH1 0x0 NOT PUSH1 0x3 DUP9 SWAP1 SHL PUSH1 0xF8 AND SHR NOT AND DUP2 SSTORE JUMPDEST POP POP POP POP POP PUSH1 0x1 SWAP1 DUP2 SHL ADD SWAP1 SSTORE POP JUMP INVALID LOG1 PUSH5 0x736F6C6343 STOP ADDMOD EQ STOP EXP "},"methodIdentifiers":{"LUX()":"d174d584","basePrice()":"c7876ea4","buy()":"a6f2ae3a","buyWithLimit(uint256,uint256,uint256)":"0842d271","claim(uint256)":"379607f5","claimAll()":"d1058e59","claimed(uint256,address)":"120aa877","collect()":"e5225381","createFirstDay()":"cfae52e1","createOnDay(uint256)":"5ca81139","createPerDay()":"f96512cc","dailyTotals(uint256)":"7d34f5ac","dayFor(uint256)":"d90c1759","foundersAllocation()":"1db580fa","foundersKey()":"389ae4d1","freeze()":"62a5af3b","getCurrentPriceFloor(uint256)":"92724df4","initialize(address)":"c4d66de8","keys(address)":"670d14b2","numberOfDays()":"e9f6bd0b","openTime()":"b4256888","owner()":"8da5cb5b","priceIncreaseRate()":"53014d67","register(string)":"f2c298be","renounceOwnership()":"715018a6","startTime()":"78e97925","time()":"16ada547","today()":"b74e452b","totalSupply()":"18160ddd","transferOwnership(address)":"f2fde38b","userBuys(uint256,address)":"3904e1bf"}}}}}