{"src/LUXSaleUtil.sol":{"LUXSaleUtil":{"abi":[{"inputs":[{"internalType":"contract LUXSale","name":"_sale","type":"address"}],"stateMutability":"nonpayable","type":"constructor"},{"inputs":[],"name":"dailyTotals","outputs":[{"internalType":"uint256[369]","name":"result","type":"uint256[369]"}],"stateMutability":"view","type":"function"},{"inputs":[],"name":"sale","outputs":[{"internalType":"contract LUXSale","name":"","type":"address"}],"stateMutability":"view","type":"function"},{"inputs":[{"internalType":"address","name":"user","type":"address"}],"name":"userBuys","outputs":[{"internalType":"uint256[369]","name":"result","type":"uint256[369]"}],"stateMutability":"view","type":"function"},{"inputs":[{"internalType":"address","name":"user","type":"address"}],"name":"userClaims","outputs":[{"internalType":"bool[369]","name":"result","type":"bool[369]"}],"stateMutability":"view","type":"function"}],"evm":{"bytecode":{"linkReferences":{},"object":"608060405234801561001057600080fd5b506040516104b73803806104b783398101604081905261002f91610054565b600080546001600160a01b0319166001600160a01b0392909216919091179055610084565b60006020828403121561006657600080fd5b81516001600160a01b038116811461007d57600080fd5b9392505050565b610424806100936000396000f3fe608060405234801561001057600080fd5b506004361061004c5760003560e01c806348d2df48146100515780636ad1fe021461007a57806383c56fc8146100a5578063f0a3563c146100ad575b600080fd5b61006461005f366004610310565b6100cd565b6040516100719190610340565b60405180910390f35b60005461008d906001600160a01b031681565b6040516001600160a01b039091168152602001610071565b610064610187565b6100c06100bb366004610310565b610237565b6040516100719190610373565b6100d56102f0565b60005b61017181101561018157600054604051633904e1bf60e01b8152600481018390526001600160a01b03858116602483015290911690633904e1bf90604401602060405180830381865afa158015610133573d6000803e3d6000fd5b505050506040513d601f19601f82011682018060405250810190610157919061039f565b8282610171811061016a5761016a6103b8565b602002015280610179816103ce565b9150506100d8565b50919050565b61018f6102f0565b60005b61017181101561023357600054604051631f4d3d6b60e21b8152600481018390526001600160a01b0390911690637d34f5ac90602401602060405180830381865afa1580156101e5573d6000803e3d6000fd5b505050506040513d601f19601f82011682018060405250810190610209919061039f565b8282610171811061021c5761021c6103b8565b60200201528061022b816103ce565b915050610192565b5090565b61023f6102f0565b60005b6101718110156101815760005460405163120aa87760e01b8152600481018390526001600160a01b0385811660248301529091169063120aa87790604401602060405180830381865afa15801561029d573d6000803e3d6000fd5b505050506040513d601f19601f820116820180604052508101906102c191906103f5565b828261017181106102d4576102d46103b8565b91151560209092020152806102e8816103ce565b915050610242565b60405180612e200160405280610171906020820280368337509192915050565b60006020828403121561032257600080fd5b81356001600160a01b038116811461033957600080fd5b9392505050565b612e208101818360005b61017181101561036a57815183526020928301929091019060010161034a565b50505092915050565b612e208101818360005b61017181101561036a578151151583526020928301929091019060010161037d565b6000602082840312156103b157600080fd5b5051919050565b634e487b7160e01b600052603260045260246000fd5b6000600182016103ee57634e487b7160e01b600052601160045260246000fd5b5060010190565b60006020828403121561040757600080fd5b8151801515811461033957600080fdfea164736f6c6343000814000a","opcodes":"PUSH1 0x80 PUSH1 0x40 MSTORE CALLVALUE DUP1 ISZERO PUSH2 0x10 JUMPI PUSH1 0x0 DUP1 REVERT JUMPDEST POP PUSH1 0x40 MLOAD PUSH2 0x4B7 CODESIZE SUB DUP1 PUSH2 0x4B7 DUP4 CODECOPY DUP2 ADD PUSH1 0x40 DUP2 SWAP1 MSTORE PUSH2 0x2F SWAP2 PUSH2 0x54 JUMP JUMPDEST PUSH1 0x0 DUP1 SLOAD PUSH1 0x1 PUSH1 0x1 PUSH1 0xA0 SHL SUB NOT AND PUSH1 0x1 PUSH1 0x1 PUSH1 0xA0 SHL SUB SWAP3 SWAP1 SWAP3 AND SWAP2 SWAP1 SWAP2 OR SWAP1 SSTORE PUSH2 0x84 JUMP JUMPDEST PUSH1 0x0 PUSH1 0x20 DUP3 DUP5 SUB SLT ISZERO PUSH2 0x66 JUMPI PUSH1 0x0 DUP1 REVERT JUMPDEST DUP2 MLOAD PUSH1 0x1 PUSH1 0x1 PUSH1 0xA0 SHL SUB DUP2 AND DUP2 EQ PUSH2 0x7D JUMPI PUSH1 0x0 DUP1 REVERT JUMPDEST SWAP4 SWAP3 POP POP POP JUMP JUMPDEST PUSH2 0x424 DUP1 PUSH2 0x93 PUSH1 0x0 CODECOPY PUSH1 0x0 RETURN INVALID PUSH1 0x80 PUSH1 0x40 MSTORE CALLVALUE DUP1 ISZERO PUSH2 0x10 JUMPI PUSH1 0x0 DUP1 REVERT JUMPDEST POP PUSH1 0x4 CALLDATASIZE LT PUSH2 0x4C JUMPI PUSH1 0x0 CALLDATALOAD PUSH1 0xE0 SHR DUP1 PUSH4 0x48D2DF48 EQ PUSH2 0x51 JUMPI DUP1 PUSH4 0x6AD1FE02 EQ PUSH2 0x7A JUMPI DUP1 PUSH4 0x83C56FC8 EQ PUSH2 0xA5 JUMPI DUP1 PUSH4 0xF0A3563C EQ PUSH2 0xAD JUMPI JUMPDEST PUSH1 0x0 DUP1 REVERT JUMPDEST PUSH2 0x64 PUSH2 0x5F CALLDATASIZE PUSH1 0x4 PUSH2 0x310 JUMP JUMPDEST PUSH2 0xCD JUMP JUMPDEST PUSH1 0x40 MLOAD PUSH2 0x71 SWAP2 SWAP1 PUSH2 0x340 JUMP JUMPDEST PUSH1 0x40 MLOAD DUP1 SWAP2 SUB SWAP1 RETURN JUMPDEST PUSH1 0x0 SLOAD PUSH2 0x8D SWAP1 PUSH1 0x1 PUSH1 0x1 PUSH1 0xA0 SHL SUB AND DUP2 JUMP JUMPDEST PUSH1 0x40 MLOAD PUSH1 0x1 PUSH1 0x1 PUSH1 0xA0 SHL SUB SWAP1 SWAP2 AND DUP2 MSTORE PUSH1 0x20 ADD PUSH2 0x71 JUMP JUMPDEST PUSH2 0x64 PUSH2 0x187 JUMP JUMPDEST PUSH2 0xC0 PUSH2 0xBB CALLDATASIZE PUSH1 0x4 PUSH2 0x310 JUMP JUMPDEST PUSH2 0x237 JUMP JUMPDEST PUSH1 0x40 MLOAD PUSH2 0x71 SWAP2 SWAP1 PUSH2 0x373 JUMP JUMPDEST PUSH2 0xD5 PUSH2 0x2F0 JUMP JUMPDEST PUSH1 0x0 JUMPDEST PUSH2 0x171 DUP2 LT ISZERO PUSH2 0x181 JUMPI PUSH1 0x0 SLOAD PUSH1 0x40 MLOAD PUSH4 0x3904E1BF PUSH1 0xE0 SHL DUP2 MSTORE PUSH1 0x4 DUP2 ADD DUP4 SWAP1 MSTORE PUSH1 0x1 PUSH1 0x1 PUSH1 0xA0 SHL SUB DUP6 DUP2 AND PUSH1 0x24 DUP4 ADD MSTORE SWAP1 SWAP2 AND SWAP1 PUSH4 0x3904E1BF SWAP1 PUSH1 0x44 ADD PUSH1 0x20 PUSH1 0x40 MLOAD DUP1 DUP4 SUB DUP2 DUP7 GAS STATICCALL ISZERO DUP1 ISZERO PUSH2 0x133 JUMPI RETURNDATASIZE PUSH1 0x0 DUP1 RETURNDATACOPY RETURNDATASIZE PUSH1 0x0 REVERT JUMPDEST POP POP POP POP PUSH1 0x40 MLOAD RETURNDATASIZE PUSH1 0x1F NOT PUSH1 0x1F DUP3 ADD AND DUP3 ADD DUP1 PUSH1 0x40 MSTORE POP DUP2 ADD SWAP1 PUSH2 0x157 SWAP2 SWAP1 PUSH2 0x39F JUMP JUMPDEST DUP3 DUP3 PUSH2 0x171 DUP2 LT PUSH2 0x16A JUMPI PUSH2 0x16A PUSH2 0x3B8 JUMP JUMPDEST PUSH1 0x20 MUL ADD MSTORE DUP1 PUSH2 0x179 DUP2 PUSH2 0x3CE JUMP JUMPDEST SWAP2 POP POP PUSH2 0xD8 JUMP JUMPDEST POP SWAP2 SWAP1 POP JUMP JUMPDEST PUSH2 0x18F PUSH2 0x2F0 JUMP JUMPDEST PUSH1 0x0 JUMPDEST PUSH2 0x171 DUP2 LT ISZERO PUSH2 0x233 JUMPI PUSH1 0x0 SLOAD PUSH1 0x40 MLOAD PUSH4 0x1F4D3D6B PUSH1 0xE2 SHL DUP2 MSTORE PUSH1 0x4 DUP2 ADD DUP4 SWAP1 MSTORE PUSH1 0x1 PUSH1 0x1 PUSH1 0xA0 SHL SUB SWAP1 SWAP2 AND SWAP1 PUSH4 0x7D34F5AC SWAP1 PUSH1 0x24 ADD PUSH1 0x20 PUSH1 0x40 MLOAD DUP1 DUP4 SUB DUP2 DUP7 GAS STATICCALL ISZERO DUP1 ISZERO PUSH2 0x1E5 JUMPI RETURNDATASIZE PUSH1 0x0 DUP1 RETURNDATACOPY RETURNDATASIZE PUSH1 0x0 REVERT JUMPDEST POP POP POP POP PUSH1 0x40 MLOAD RETURNDATASIZE PUSH1 0x1F NOT PUSH1 0x1F DUP3 ADD AND DUP3 ADD DUP1 PUSH1 0x40 MSTORE POP DUP2 ADD SWAP1 PUSH2 0x209 SWAP2 SWAP1 PUSH2 0x39F JUMP JUMPDEST DUP3 DUP3 PUSH2 0x171 DUP2 LT PUSH2 0x21C JUMPI PUSH2 0x21C PUSH2 0x3B8 JUMP JUMPDEST PUSH1 0x20 MUL ADD MSTORE DUP1 PUSH2 0x22B DUP2 PUSH2 0x3CE JUMP JUMPDEST SWAP2 POP POP PUSH2 0x192 JUMP JUMPDEST POP SWAP1 JUMP JUMPDEST PUSH2 0x23F PUSH2 0x2F0 JUMP JUMPDEST PUSH1 0x0 JUMPDEST PUSH2 0x171 DUP2 LT ISZERO PUSH2 0x181 JUMPI PUSH1 0x0 SLOAD PUSH1 0x40 MLOAD PUSH4 0x120AA877 PUSH1 0xE0 SHL DUP2 MSTORE PUSH1 0x4 DUP2 ADD DUP4 SWAP1 MSTORE PUSH1 0x1 PUSH1 0x1 PUSH1 0xA0 SHL SUB DUP6 DUP2 AND PUSH1 0x24 DUP4 ADD MSTORE SWAP1 SWAP2 AND SWAP1 PUSH4 0x120AA877 SWAP1 PUSH1 0x44 ADD PUSH1 0x20 PUSH1 0x40 MLOAD DUP1 DUP4 SUB DUP2 DUP7 GAS STATICCALL ISZERO DUP1 ISZERO PUSH2 0x29D JUMPI RETURNDATASIZE PUSH1 0x0 DUP1 RETURNDATACOPY RETURNDATASIZE PUSH1 0x0 REVERT JUMPDEST POP POP POP POP PUSH1 0x40 MLOAD RETURNDATASIZE PUSH1 0x1F NOT PUSH1 0x1F DUP3 ADD AND DUP3 ADD DUP1 PUSH1 0x40 MSTORE POP DUP2 ADD SWAP1 PUSH2 0x2C1 SWAP2 SWAP1 PUSH2 0x3F5 JUMP JUMPDEST DUP3 DUP3 PUSH2 0x171 DUP2 LT PUSH2 0x2D4 JUMPI PUSH2 0x2D4 PUSH2 0x3B8 JUMP JUMPDEST SWAP2 ISZERO ISZERO PUSH1 0x20 SWAP1 SWAP3 MUL ADD MSTORE DUP1 PUSH2 0x2E8 DUP2 PUSH2 0x3CE JUMP JUMPDEST SWAP2 POP POP PUSH2 0x242 JUMP JUMPDEST PUSH1 0x40 MLOAD DUP1 PUSH2 0x2E20 ADD PUSH1 0x40 MSTORE DUP1 PUSH2 0x171 SWAP1 PUSH1 0x20 DUP3 MUL DUP1 CALLDATASIZE DUP4 CALLDATACOPY POP SWAP2 SWAP3 SWAP2 POP POP JUMP JUMPDEST PUSH1 0x0 PUSH1 0x20 DUP3 DUP5 SUB SLT ISZERO PUSH2 0x322 JUMPI PUSH1 0x0 DUP1 REVERT JUMPDEST DUP2 CALLDATALOAD PUSH1 0x1 PUSH1 0x1 PUSH1 0xA0 SHL SUB DUP2 AND DUP2 EQ PUSH2 0x339 JUMPI PUSH1 0x0 DUP1 REVERT JUMPDEST SWAP4 SWAP3 POP POP POP JUMP JUMPDEST PUSH2 0x2E20 DUP2 ADD DUP2 DUP4 PUSH1 0x0 JUMPDEST PUSH2 0x171 DUP2 LT ISZERO PUSH2 0x36A JUMPI DUP2 MLOAD DUP4 MSTORE PUSH1 0x20 SWAP3 DUP4 ADD SWAP3 SWAP1 SWAP2 ADD SWAP1 PUSH1 0x1 ADD PUSH2 0x34A JUMP JUMPDEST POP POP POP SWAP3 SWAP2 POP POP JUMP JUMPDEST PUSH2 0x2E20 DUP2 ADD DUP2 DUP4 PUSH1 0x0 JUMPDEST PUSH2 0x171 DUP2 LT ISZERO PUSH2 0x36A JUMPI DUP2 MLOAD ISZERO ISZERO DUP4 MSTORE PUSH1 0x20 SWAP3 DUP4 ADD SWAP3 SWAP1 SWAP2 ADD SWAP1 PUSH1 0x1 ADD PUSH2 0x37D JUMP JUMPDEST PUSH1 0x0 PUSH1 0x20 DUP3 DUP5 SUB SLT ISZERO PUSH2 0x3B1 JUMPI PUSH1 0x0 DUP1 REVERT JUMPDEST POP MLOAD SWAP2 SWAP1 POP JUMP JUMPDEST PUSH4 0x4E487B71 PUSH1 0xE0 SHL PUSH1 0x0 MSTORE PUSH1 0x32 PUSH1 0x4 MSTORE PUSH1 0x24 PUSH1 0x0 REVERT JUMPDEST PUSH1 0x0 PUSH1 0x1 DUP3 ADD PUSH2 0x3EE JUMPI PUSH4 0x4E487B71 PUSH1 0xE0 SHL PUSH1 0x0 MSTORE PUSH1 0x11 PUSH1 0x4 MSTORE PUSH1 0x24 PUSH1 0x0 REVERT JUMPDEST POP PUSH1 0x1 ADD SWAP1 JUMP JUMPDEST PUSH1 0x0 PUSH1 0x20 DUP3 DUP5 SUB SLT ISZERO PUSH2 0x407 JUMPI PUSH1 0x0 DUP1 REVERT JUMPDEST DUP2 MLOAD DUP1 ISZERO ISZERO DUP2 EQ PUSH2 0x339 JUMPI PUSH1 0x0 DUP1 REVERT INVALID LOG1 PUSH5 0x736F6C6343 STOP ADDMOD EQ STOP EXP "},"methodIdentifiers":{"dailyTotals()":"83c56fc8","sale()":"6ad1fe02","userBuys(address)":"48d2df48","userClaims(address)":"f0a3563c"}}}}}