{"src/LUXSaleUtil.sol":{"LUXSaleUtil":{"abi":[{"inputs":[{"internalType":"contract LUXSale","name":"_sale","type":"address"}],"stateMutability":"nonpayable","type":"constructor"},{"inputs":[],"name":"dailyTotals","outputs":[{"internalType":"uint256[369]","name":"result","type":"uint256[369]"}],"stateMutability":"view","type":"function"},{"inputs":[],"name":"sale","outputs":[{"internalType":"contract LUXSale","name":"","type":"address"}],"stateMutability":"view","type":"function"},{"inputs":[],"name":"unsoldTokens","outputs":[{"internalType":"uint256[369]","name":"result","type":"uint256[369]"}],"stateMutability":"view","type":"function"},{"inputs":[{"internalType":"address","name":"user","type":"address"}],"name":"userBuys","outputs":[{"internalType":"uint256[369]","name":"result","type":"uint256[369]"}],"stateMutability":"view","type":"function"}],"evm":{"bytecode":{"linkReferences":{},"object":"608060405234801561001057600080fd5b506040516103b53803806103b58339818101604052602081101561003357600080fd5b5051600080546001600160a01b039092166001600160a01b0319909216919091179055610350806100656000396000f3fe608060405234801561001057600080fd5b506004361061004c5760003560e01c806348d2df48146100515780636ad1fe02146100b057806383c56fc8146100d4578063b670a4b1146100dc575b600080fd5b6100776004803603602081101561006757600080fd5b50356001600160a01b03166100e4565b6040518082612e2080838360005b8381101561009d578181015183820152602001610085565b5050505090500191505060405180910390f35b6100b8610199565b604080516001600160a01b039092168252519081900360200190f35b6100776101a8565b610077610253565b6100ec6102fa565b60005b6101718110156101935760005460408051633904e1bf60e01b8152600481018490526001600160a01b03868116602483015291519190921691633904e1bf916044808301926020929190829003018186803b15801561014d57600080fd5b505afa158015610161573d6000803e3d6000fd5b505050506040513d602081101561017757600080fd5b50518282610171811061018657fe5b60200201526001016100ef565b50919050565b6000546001600160a01b031681565b6101b06102fa565b60005b61017181101561024f57600054604080516344e56d6360e11b81526004810184905290516001600160a01b03909216916389cadac691602480820192602092909190829003018186803b15801561020957600080fd5b505afa15801561021d573d6000803e3d6000fd5b505050506040513d602081101561023357600080fd5b50518282610171811061024257fe5b60200201526001016101b3565b5090565b61025b6102fa565b60005b61017181101561024f576000546040805163c83f42f760e01b81526004810184905290516001600160a01b039092169163c83f42f791602480820192602092909190829003018186803b1580156102b457600080fd5b505afa1580156102c8573d6000803e3d6000fd5b505050506040513d60208110156102de57600080fd5b5051828261017181106102ed57fe5b602002015260010161025e565b60405180612e20016040528061017190602082028036833750919291505056fea26469706673582212201273de58c630555ab6e5404bc576b7d3b1facfc90bbef7a008154c18d02f225b64736f6c63430007060033","opcodes":"PUSH1 0x80 PUSH1 0x40 MSTORE CALLVALUE DUP1 ISZERO PUSH2 0x10 JUMPI PUSH1 0x0 DUP1 REVERT JUMPDEST POP PUSH1 0x40 MLOAD PUSH2 0x3B5 CODESIZE SUB DUP1 PUSH2 0x3B5 DUP4 CODECOPY DUP2 DUP2 ADD PUSH1 0x40 MSTORE PUSH1 0x20 DUP2 LT ISZERO PUSH2 0x33 JUMPI PUSH1 0x0 DUP1 REVERT JUMPDEST POP MLOAD PUSH1 0x0 DUP1 SLOAD PUSH1 0x1 PUSH1 0x1 PUSH1 0xA0 SHL SUB SWAP1 SWAP3 AND PUSH1 0x1 PUSH1 0x1 PUSH1 0xA0 SHL SUB NOT SWAP1 SWAP3 AND SWAP2 SWAP1 SWAP2 OR SWAP1 SSTORE PUSH2 0x350 DUP1 PUSH2 0x65 PUSH1 0x0 CODECOPY PUSH1 0x0 RETURN INVALID PUSH1 0x80 PUSH1 0x40 MSTORE CALLVALUE DUP1 ISZERO PUSH2 0x10 JUMPI PUSH1 0x0 DUP1 REVERT JUMPDEST POP PUSH1 0x4 CALLDATASIZE LT PUSH2 0x4C JUMPI PUSH1 0x0 CALLDATALOAD PUSH1 0xE0 SHR DUP1 PUSH4 0x48D2DF48 EQ PUSH2 0x51 JUMPI DUP1 PUSH4 0x6AD1FE02 EQ PUSH2 0xB0 JUMPI DUP1 PUSH4 0x83C56FC8 EQ PUSH2 0xD4 JUMPI DUP1 PUSH4 0xB670A4B1 EQ PUSH2 0xDC JUMPI JUMPDEST PUSH1 0x0 DUP1 REVERT JUMPDEST PUSH2 0x77 PUSH1 0x4 DUP1 CALLDATASIZE SUB PUSH1 0x20 DUP2 LT ISZERO PUSH2 0x67 JUMPI PUSH1 0x0 DUP1 REVERT JUMPDEST POP CALLDATALOAD PUSH1 0x1 PUSH1 0x1 PUSH1 0xA0 SHL SUB AND PUSH2 0xE4 JUMP JUMPDEST PUSH1 0x40 MLOAD DUP1 DUP3 PUSH2 0x2E20 DUP1 DUP4 DUP4 PUSH1 0x0 JUMPDEST DUP4 DUP2 LT ISZERO PUSH2 0x9D JUMPI DUP2 DUP2 ADD MLOAD DUP4 DUP3 ADD MSTORE PUSH1 0x20 ADD PUSH2 0x85 JUMP JUMPDEST POP POP POP POP SWAP1 POP ADD SWAP2 POP POP PUSH1 0x40 MLOAD DUP1 SWAP2 SUB SWAP1 RETURN JUMPDEST PUSH2 0xB8 PUSH2 0x199 JUMP JUMPDEST PUSH1 0x40 DUP1 MLOAD PUSH1 0x1 PUSH1 0x1 PUSH1 0xA0 SHL SUB SWAP1 SWAP3 AND DUP3 MSTORE MLOAD SWAP1 DUP2 SWAP1 SUB PUSH1 0x20 ADD SWAP1 RETURN JUMPDEST PUSH2 0x77 PUSH2 0x1A8 JUMP JUMPDEST PUSH2 0x77 PUSH2 0x253 JUMP JUMPDEST PUSH2 0xEC PUSH2 0x2FA JUMP JUMPDEST PUSH1 0x0 JUMPDEST PUSH2 0x171 DUP2 LT ISZERO PUSH2 0x193 JUMPI PUSH1 0x0 SLOAD PUSH1 0x40 DUP1 MLOAD PUSH4 0x3904E1BF PUSH1 0xE0 SHL DUP2 MSTORE PUSH1 0x4 DUP2 ADD DUP5 SWAP1 MSTORE PUSH1 0x1 PUSH1 0x1 PUSH1 0xA0 SHL SUB DUP7 DUP2 AND PUSH1 0x24 DUP4 ADD MSTORE SWAP2 MLOAD SWAP2 SWAP1 SWAP3 AND SWAP2 PUSH4 0x3904E1BF SWAP2 PUSH1 0x44 DUP1 DUP4 ADD SWAP3 PUSH1 0x20 SWAP3 SWAP2 SWAP1 DUP3 SWAP1 SUB ADD DUP2 DUP7 DUP1 EXTCODESIZE ISZERO DUP1 ISZERO PUSH2 0x14D JUMPI PUSH1 0x0 DUP1 REVERT JUMPDEST POP GAS STATICCALL ISZERO DUP1 ISZERO PUSH2 0x161 JUMPI RETURNDATASIZE PUSH1 0x0 DUP1 RETURNDATACOPY RETURNDATASIZE PUSH1 0x0 REVERT JUMPDEST POP POP POP POP PUSH1 0x40 MLOAD RETURNDATASIZE PUSH1 0x20 DUP2 LT ISZERO PUSH2 0x177 JUMPI PUSH1 0x0 DUP1 REVERT JUMPDEST POP MLOAD DUP3 DUP3 PUSH2 0x171 DUP2 LT PUSH2 0x186 JUMPI INVALID JUMPDEST PUSH1 0x20 MUL ADD MSTORE PUSH1 0x1 ADD PUSH2 0xEF JUMP JUMPDEST POP SWAP2 SWAP1 POP JUMP JUMPDEST PUSH1 0x0 SLOAD PUSH1 0x1 PUSH1 0x1 PUSH1 0xA0 SHL SUB AND DUP2 JUMP JUMPDEST PUSH2 0x1B0 PUSH2 0x2FA JUMP JUMPDEST PUSH1 0x0 JUMPDEST PUSH2 0x171 DUP2 LT ISZERO PUSH2 0x24F JUMPI PUSH1 0x0 SLOAD PUSH1 0x40 DUP1 MLOAD PUSH4 0x44E56D63 PUSH1 0xE1 SHL DUP2 MSTORE PUSH1 0x4 DUP2 ADD DUP5 SWAP1 MSTORE SWAP1 MLOAD PUSH1 0x1 PUSH1 0x1 PUSH1 0xA0 SHL SUB SWAP1 SWAP3 AND SWAP2 PUSH4 0x89CADAC6 SWAP2 PUSH1 0x24 DUP1 DUP3 ADD SWAP3 PUSH1 0x20 SWAP3 SWAP1 SWAP2 SWAP1 DUP3 SWAP1 SUB ADD DUP2 DUP7 DUP1 EXTCODESIZE ISZERO DUP1 ISZERO PUSH2 0x209 JUMPI PUSH1 0x0 DUP1 REVERT JUMPDEST POP GAS STATICCALL ISZERO DUP1 ISZERO PUSH2 0x21D JUMPI RETURNDATASIZE PUSH1 0x0 DUP1 RETURNDATACOPY RETURNDATASIZE PUSH1 0x0 REVERT JUMPDEST POP POP POP POP PUSH1 0x40 MLOAD RETURNDATASIZE PUSH1 0x20 DUP2 LT ISZERO PUSH2 0x233 JUMPI PUSH1 0x0 DUP1 REVERT JUMPDEST POP MLOAD DUP3 DUP3 PUSH2 0x171 DUP2 LT PUSH2 0x242 JUMPI INVALID JUMPDEST PUSH1 0x20 MUL ADD MSTORE PUSH1 0x1 ADD PUSH2 0x1B3 JUMP JUMPDEST POP SWAP1 JUMP JUMPDEST PUSH2 0x25B PUSH2 0x2FA JUMP JUMPDEST PUSH1 0x0 JUMPDEST PUSH2 0x171 DUP2 LT ISZERO PUSH2 0x24F JUMPI PUSH1 0x0 SLOAD PUSH1 0x40 DUP1 MLOAD PUSH4 0xC83F42F7 PUSH1 0xE0 SHL DUP2 MSTORE PUSH1 0x4 DUP2 ADD DUP5 SWAP1 MSTORE SWAP1 MLOAD PUSH1 0x1 PUSH1 0x1 PUSH1 0xA0 SHL SUB SWAP1 SWAP3 AND SWAP2 PUSH4 0xC83F42F7 SWAP2 PUSH1 0x24 DUP1 DUP3 ADD SWAP3 PUSH1 0x20 SWAP3 SWAP1 SWAP2 SWAP1 DUP3 SWAP1 SUB ADD DUP2 DUP7 DUP1 EXTCODESIZE ISZERO DUP1 ISZERO PUSH2 0x2B4 JUMPI PUSH1 0x0 DUP1 REVERT JUMPDEST POP GAS STATICCALL ISZERO DUP1 ISZERO PUSH2 0x2C8 JUMPI RETURNDATASIZE PUSH1 0x0 DUP1 RETURNDATACOPY RETURNDATASIZE PUSH1 0x0 REVERT JUMPDEST POP POP POP POP PUSH1 0x40 MLOAD RETURNDATASIZE PUSH1 0x20 DUP2 LT ISZERO PUSH2 0x2DE JUMPI PUSH1 0x0 DUP1 REVERT JUMPDEST POP MLOAD DUP3 DUP3 PUSH2 0x171 DUP2 LT PUSH2 0x2ED JUMPI INVALID JUMPDEST PUSH1 0x20 MUL ADD MSTORE PUSH1 0x1 ADD PUSH2 0x25E JUMP JUMPDEST PUSH1 0x40 MLOAD DUP1 PUSH2 0x2E20 ADD PUSH1 0x40 MSTORE DUP1 PUSH2 0x171 SWAP1 PUSH1 0x20 DUP3 MUL DUP1 CALLDATASIZE DUP4 CALLDATACOPY POP SWAP2 SWAP3 SWAP2 POP POP JUMP INVALID LOG2 PUSH5 0x6970667358 0x22 SLT KECCAK256 SLT PUSH20 0xDE58C630555AB6E5404BC576B7D3B1FACFC90BBE 0xF7 LOG0 ADDMOD ISZERO 0x4C XOR 0xD0 0x2F 0x22 JUMPDEST PUSH5 0x736F6C6343 STOP SMOD MOD STOP CALLER "},"methodIdentifiers":{"dailyTotals()":"83c56fc8","sale()":"6ad1fe02","unsoldTokens()":"b670a4b1","userBuys(address)":"48d2df48"}}}}}