{"src/UniswapV3PoolMock.sol":{"UniswapV3PoolMock":{"abi":[{"inputs":[{"internalType":"address","name":"_token0","type":"address"},{"internalType":"address","name":"_token1","type":"address"}],"stateMutability":"nonpayable","type":"constructor"},{"inputs":[],"name":"mockPrice","outputs":[{"internalType":"uint256","name":"","type":"uint256"}],"stateMutability":"view","type":"function"},{"inputs":[{"internalType":"uint32[]","name":"secondsAgos","type":"uint32[]"}],"name":"observe","outputs":[{"internalType":"int56[]","name":"tickCumulatives","type":"int56[]"},{"internalType":"uint160[]","name":"secondsPerLiquidityCumulativeX128s","type":"uint160[]"}],"stateMutability":"view","type":"function"},{"inputs":[{"internalType":"uint256","name":"_mockPrice","type":"uint256"}],"name":"setMockPrice","outputs":[],"stateMutability":"nonpayable","type":"function"},{"inputs":[],"name":"slot0","outputs":[{"internalType":"uint160","name":"sqrtPriceX96","type":"uint160"},{"internalType":"int24","name":"tick","type":"int24"},{"internalType":"uint16","name":"observationIndex","type":"uint16"},{"internalType":"uint16","name":"observationCardinality","type":"uint16"},{"internalType":"uint16","name":"observationCardinalityNext","type":"uint16"},{"internalType":"uint8","name":"feeProtocol","type":"uint8"},{"internalType":"bool","name":"unlocked","type":"bool"}],"stateMutability":"view","type":"function"},{"inputs":[],"name":"token0","outputs":[{"internalType":"address","name":"","type":"address"}],"stateMutability":"view","type":"function"},{"inputs":[],"name":"token1","outputs":[{"internalType":"address","name":"","type":"address"}],"stateMutability":"view","type":"function"}],"evm":{"bytecode":{"linkReferences":{},"object":"60c060405234801561001057600080fd5b506040516104b93803806104b98339818101604052604081101561003357600080fd5b5080516020909101516001600160601b0319606092831b8116608052911b1660a052670de0b6b3a764000060005560805160601c60a05160601c61042f61008a600039806103d2525080610230525061042f6000f3fe608060405234801561001057600080fd5b50600436106100625760003560e01c80630dfe1681146100675780633850c7bd1461008b578063883bdbfd146100e4578063c7207e74146101ed578063d21220a714610207578063feca9cc01461020f575b600080fd5b61006f61022e565b604080516001600160a01b039092168252519081900360200190f35b610093610252565b604080516001600160a01b03909816885260029690960b602088015261ffff9485168787015292841660608701529216608085015260ff90911660a0840152151560c0830152519081900360e00190f35b610154600480360360208110156100fa57600080fd5b81019060208101813564010000000081111561011557600080fd5b82018360208201111561012757600080fd5b8035906020019184602083028401116401000000008311171561014957600080fd5b509092509050610266565b604051808060200180602001838103835285818151815260200191508051906020019060200280838360005b83811015610198578181015183820152602001610180565b50505050905001838103825284818151815260200191508051906020019060200280838360005b838110156101d75781810151838201526020016101bf565b5050505090500194505050505060405180910390f35b6101f56103ca565b60408051918252519081900360200190f35b61006f6103d0565b61022c6004803603602081101561022557600080fd5b50356103f4565b005b7f000000000000000000000000000000000000000000000000000000000000000081565b600080549182919060029081908390600190565b606080826102bb576040805162461bcd60e51b815260206004820152601b60248201527f4e656564206174206c65617374206f6e652064617461706f696e740000000000604482015290519081900360640190fd5b8267ffffffffffffffff811180156102d257600080fd5b506040519080825280602002602001820160405280156102fc578160200160208202803683370190505b5091508267ffffffffffffffff8111801561031657600080fd5b50604051908082528060200260200182016040528015610340578160200160208202803683370190505b50905060005b838110156103c25784848281811061035a57fe5b9050602002013563ffffffff1663ffffffff1642036000540283828151811061037f57fe5b602002602001019060060b908160060b815250506000548282815181106103a257fe5b6001600160a01b0390921660209283029190910190910152600101610346565b509250929050565b60005481565b7f000000000000000000000000000000000000000000000000000000000000000081565b60005556fea264697066735822122027c93f1a1686e44da1fbb90bffdb07161fe90f31f47332558e0e175c4357482264736f6c63430007060033","opcodes":"PUSH1 0xC0 PUSH1 0x40 MSTORE CALLVALUE DUP1 ISZERO PUSH2 0x10 JUMPI PUSH1 0x0 DUP1 REVERT JUMPDEST POP PUSH1 0x40 MLOAD PUSH2 0x4B9 CODESIZE SUB DUP1 PUSH2 0x4B9 DUP4 CODECOPY DUP2 DUP2 ADD PUSH1 0x40 MSTORE PUSH1 0x40 DUP2 LT ISZERO PUSH2 0x33 JUMPI PUSH1 0x0 DUP1 REVERT JUMPDEST POP DUP1 MLOAD PUSH1 0x20 SWAP1 SWAP2 ADD MLOAD PUSH1 0x1 PUSH1 0x1 PUSH1 0x60 SHL SUB NOT PUSH1 0x60 SWAP3 DUP4 SHL DUP2 AND PUSH1 0x80 MSTORE SWAP2 SHL AND PUSH1 0xA0 MSTORE PUSH8 0xDE0B6B3A7640000 PUSH1 0x0 SSTORE PUSH1 0x80 MLOAD PUSH1 0x60 SHR PUSH1 0xA0 MLOAD PUSH1 0x60 SHR PUSH2 0x42F PUSH2 0x8A PUSH1 0x0 CODECOPY DUP1 PUSH2 0x3D2 MSTORE POP DUP1 PUSH2 0x230 MSTORE POP PUSH2 0x42F PUSH1 0x0 RETURN INVALID PUSH1 0x80 PUSH1 0x40 MSTORE CALLVALUE DUP1 ISZERO PUSH2 0x10 JUMPI PUSH1 0x0 DUP1 REVERT JUMPDEST POP PUSH1 0x4 CALLDATASIZE LT PUSH2 0x62 JUMPI PUSH1 0x0 CALLDATALOAD PUSH1 0xE0 SHR DUP1 PUSH4 0xDFE1681 EQ PUSH2 0x67 JUMPI DUP1 PUSH4 0x3850C7BD EQ PUSH2 0x8B JUMPI DUP1 PUSH4 0x883BDBFD EQ PUSH2 0xE4 JUMPI DUP1 PUSH4 0xC7207E74 EQ PUSH2 0x1ED JUMPI DUP1 PUSH4 0xD21220A7 EQ PUSH2 0x207 JUMPI DUP1 PUSH4 0xFECA9CC0 EQ PUSH2 0x20F JUMPI JUMPDEST PUSH1 0x0 DUP1 REVERT JUMPDEST PUSH2 0x6F PUSH2 0x22E JUMP JUMPDEST PUSH1 0x40 DUP1 MLOAD PUSH1 0x1 PUSH1 0x1 PUSH1 0xA0 SHL SUB SWAP1 SWAP3 AND DUP3 MSTORE MLOAD SWAP1 DUP2 SWAP1 SUB PUSH1 0x20 ADD SWAP1 RETURN JUMPDEST PUSH2 0x93 PUSH2 0x252 JUMP JUMPDEST PUSH1 0x40 DUP1 MLOAD PUSH1 0x1 PUSH1 0x1 PUSH1 0xA0 SHL SUB SWAP1 SWAP9 AND DUP9 MSTORE PUSH1 0x2 SWAP7 SWAP1 SWAP7 SIGNEXTEND PUSH1 0x20 DUP9 ADD MSTORE PUSH2 0xFFFF SWAP5 DUP6 AND DUP8 DUP8 ADD MSTORE SWAP3 DUP5 AND PUSH1 0x60 DUP8 ADD MSTORE SWAP3 AND PUSH1 0x80 DUP6 ADD MSTORE PUSH1 0xFF SWAP1 SWAP2 AND PUSH1 0xA0 DUP5 ADD MSTORE ISZERO ISZERO PUSH1 0xC0 DUP4 ADD MSTORE MLOAD SWAP1 DUP2 SWAP1 SUB PUSH1 0xE0 ADD SWAP1 RETURN JUMPDEST PUSH2 0x154 PUSH1 0x4 DUP1 CALLDATASIZE SUB PUSH1 0x20 DUP2 LT ISZERO PUSH2 0xFA JUMPI PUSH1 0x0 DUP1 REVERT JUMPDEST DUP2 ADD SWAP1 PUSH1 0x20 DUP2 ADD DUP2 CALLDATALOAD PUSH5 0x100000000 DUP2 GT ISZERO PUSH2 0x115 JUMPI PUSH1 0x0 DUP1 REVERT JUMPDEST DUP3 ADD DUP4 PUSH1 0x20 DUP3 ADD GT ISZERO PUSH2 0x127 JUMPI PUSH1 0x0 DUP1 REVERT JUMPDEST DUP1 CALLDATALOAD SWAP1 PUSH1 0x20 ADD SWAP2 DUP5 PUSH1 0x20 DUP4 MUL DUP5 ADD GT PUSH5 0x100000000 DUP4 GT OR ISZERO PUSH2 0x149 JUMPI PUSH1 0x0 DUP1 REVERT JUMPDEST POP SWAP1 SWAP3 POP SWAP1 POP PUSH2 0x266 JUMP JUMPDEST PUSH1 0x40 MLOAD DUP1 DUP1 PUSH1 0x20 ADD DUP1 PUSH1 0x20 ADD DUP4 DUP2 SUB DUP4 MSTORE DUP6 DUP2 DUP2 MLOAD DUP2 MSTORE PUSH1 0x20 ADD SWAP2 POP DUP1 MLOAD SWAP1 PUSH1 0x20 ADD SWAP1 PUSH1 0x20 MUL DUP1 DUP4 DUP4 PUSH1 0x0 JUMPDEST DUP4 DUP2 LT ISZERO PUSH2 0x198 JUMPI DUP2 DUP2 ADD MLOAD DUP4 DUP3 ADD MSTORE PUSH1 0x20 ADD PUSH2 0x180 JUMP JUMPDEST POP POP POP POP SWAP1 POP ADD DUP4 DUP2 SUB DUP3 MSTORE DUP5 DUP2 DUP2 MLOAD DUP2 MSTORE PUSH1 0x20 ADD SWAP2 POP DUP1 MLOAD SWAP1 PUSH1 0x20 ADD SWAP1 PUSH1 0x20 MUL DUP1 DUP4 DUP4 PUSH1 0x0 JUMPDEST DUP4 DUP2 LT ISZERO PUSH2 0x1D7 JUMPI DUP2 DUP2 ADD MLOAD DUP4 DUP3 ADD MSTORE PUSH1 0x20 ADD PUSH2 0x1BF JUMP JUMPDEST POP POP POP POP SWAP1 POP ADD SWAP5 POP POP POP POP POP PUSH1 0x40 MLOAD DUP1 SWAP2 SUB SWAP1 RETURN JUMPDEST PUSH2 0x1F5 PUSH2 0x3CA JUMP JUMPDEST PUSH1 0x40 DUP1 MLOAD SWAP2 DUP3 MSTORE MLOAD SWAP1 DUP2 SWAP1 SUB PUSH1 0x20 ADD SWAP1 RETURN JUMPDEST PUSH2 0x6F PUSH2 0x3D0 JUMP JUMPDEST PUSH2 0x22C PUSH1 0x4 DUP1 CALLDATASIZE SUB PUSH1 0x20 DUP2 LT ISZERO PUSH2 0x225 JUMPI PUSH1 0x0 DUP1 REVERT JUMPDEST POP CALLDATALOAD PUSH2 0x3F4 JUMP JUMPDEST STOP JUMPDEST PUSH32 0x0 DUP2 JUMP JUMPDEST PUSH1 0x0 DUP1 SLOAD SWAP2 DUP3 SWAP2 SWAP1 PUSH1 0x2 SWAP1 DUP2 SWAP1 DUP4 SWAP1 PUSH1 0x1 SWAP1 JUMP JUMPDEST PUSH1 0x60 DUP1 DUP3 PUSH2 0x2BB JUMPI PUSH1 0x40 DUP1 MLOAD PUSH3 0x461BCD PUSH1 0xE5 SHL DUP2 MSTORE PUSH1 0x20 PUSH1 0x4 DUP3 ADD MSTORE PUSH1 0x1B PUSH1 0x24 DUP3 ADD MSTORE PUSH32 0x4E656564206174206C65617374206F6E652064617461706F696E740000000000 PUSH1 0x44 DUP3 ADD MSTORE SWAP1 MLOAD SWAP1 DUP2 SWAP1 SUB PUSH1 0x64 ADD SWAP1 REVERT JUMPDEST DUP3 PUSH8 0xFFFFFFFFFFFFFFFF DUP2 GT DUP1 ISZERO PUSH2 0x2D2 JUMPI PUSH1 0x0 DUP1 REVERT JUMPDEST POP PUSH1 0x40 MLOAD SWAP1 DUP1 DUP3 MSTORE DUP1 PUSH1 0x20 MUL PUSH1 0x20 ADD DUP3 ADD PUSH1 0x40 MSTORE DUP1 ISZERO PUSH2 0x2FC JUMPI DUP2 PUSH1 0x20 ADD PUSH1 0x20 DUP3 MUL DUP1 CALLDATASIZE DUP4 CALLDATACOPY ADD SWAP1 POP JUMPDEST POP SWAP2 POP DUP3 PUSH8 0xFFFFFFFFFFFFFFFF DUP2 GT DUP1 ISZERO PUSH2 0x316 JUMPI PUSH1 0x0 DUP1 REVERT JUMPDEST POP PUSH1 0x40 MLOAD SWAP1 DUP1 DUP3 MSTORE DUP1 PUSH1 0x20 MUL PUSH1 0x20 ADD DUP3 ADD PUSH1 0x40 MSTORE DUP1 ISZERO PUSH2 0x340 JUMPI DUP2 PUSH1 0x20 ADD PUSH1 0x20 DUP3 MUL DUP1 CALLDATASIZE DUP4 CALLDATACOPY ADD SWAP1 POP JUMPDEST POP SWAP1 POP PUSH1 0x0 JUMPDEST DUP4 DUP2 LT ISZERO PUSH2 0x3C2 JUMPI DUP5 DUP5 DUP3 DUP2 DUP2 LT PUSH2 0x35A JUMPI INVALID JUMPDEST SWAP1 POP PUSH1 0x20 MUL ADD CALLDATALOAD PUSH4 0xFFFFFFFF AND PUSH4 0xFFFFFFFF AND TIMESTAMP SUB PUSH1 0x0 SLOAD MUL DUP4 DUP3 DUP2 MLOAD DUP2 LT PUSH2 0x37F JUMPI INVALID JUMPDEST PUSH1 0x20 MUL PUSH1 0x20 ADD ADD SWAP1 PUSH1 0x6 SIGNEXTEND SWAP1 DUP2 PUSH1 0x6 SIGNEXTEND DUP2 MSTORE POP POP PUSH1 0x0 SLOAD DUP3 DUP3 DUP2 MLOAD DUP2 LT PUSH2 0x3A2 JUMPI INVALID JUMPDEST PUSH1 0x1 PUSH1 0x1 PUSH1 0xA0 SHL SUB SWAP1 SWAP3 AND PUSH1 0x20 SWAP3 DUP4 MUL SWAP2 SWAP1 SWAP2 ADD SWAP1 SWAP2 ADD MSTORE PUSH1 0x1 ADD PUSH2 0x346 JUMP JUMPDEST POP SWAP3 POP SWAP3 SWAP1 POP JUMP JUMPDEST PUSH1 0x0 SLOAD DUP2 JUMP JUMPDEST PUSH32 0x0 DUP2 JUMP JUMPDEST PUSH1 0x0 SSTORE JUMP INVALID LOG2 PUSH5 0x6970667358 0x22 SLT KECCAK256 0x27 0xC9 EXTCODEHASH BYTE AND DUP7 0xE4 0x4D LOG1 0xFB 0xB9 SIGNEXTEND SELFDESTRUCT 0xDB SMOD AND 0x1F 0xE9 0xF BALANCE DELEGATECALL PUSH20 0x32558E0E175C4357482264736F6C634300070600 CALLER "},"methodIdentifiers":{"mockPrice()":"c7207e74","observe(uint32[])":"883bdbfd","setMockPrice(uint256)":"feca9cc0","slot0()":"3850c7bd","token0()":"0dfe1681","token1()":"d21220a7"}}}}}