{
  "_format": "hh-sol-artifact-1",
  "contractName": "SafeProxyFactory",
  "sourceName": "@safe-global/safe-contracts/contracts/proxies/SafeProxyFactory.sol",
  "abi": [
    {
      "anonymous": false,
      "inputs": [
        {
          "indexed": true,
          "internalType": "contract SafeProxy",
          "name": "proxy",
          "type": "address"
        },
        {
          "indexed": false,
          "internalType": "address",
          "name": "singleton",
          "type": "address"
        }
      ],
      "name": "ProxyCreation",
      "type": "event"
    },
    {
      "inputs": [
        {
          "internalType": "address",
          "name": "_singleton",
          "type": "address"
        },
        {
          "internalType": "bytes",
          "name": "initializer",
          "type": "bytes"
        },
        {
          "internalType": "uint256",
          "name": "saltNonce",
          "type": "uint256"
        }
      ],
      "name": "createChainSpecificProxyWithNonce",
      "outputs": [
        {
          "internalType": "contract SafeProxy",
          "name": "proxy",
          "type": "address"
        }
      ],
      "stateMutability": "nonpayable",
      "type": "function"
    },
    {
      "inputs": [
        {
          "internalType": "address",
          "name": "_singleton",
          "type": "address"
        },
        {
          "internalType": "bytes",
          "name": "initializer",
          "type": "bytes"
        },
        {
          "internalType": "uint256",
          "name": "saltNonce",
          "type": "uint256"
        },
        {
          "internalType": "contract IProxyCreationCallback",
          "name": "callback",
          "type": "address"
        }
      ],
      "name": "createProxyWithCallback",
      "outputs": [
        {
          "internalType": "contract SafeProxy",
          "name": "proxy",
          "type": "address"
        }
      ],
      "stateMutability": "nonpayable",
      "type": "function"
    },
    {
      "inputs": [
        {
          "internalType": "address",
          "name": "_singleton",
          "type": "address"
        },
        {
          "internalType": "bytes",
          "name": "initializer",
          "type": "bytes"
        },
        {
          "internalType": "uint256",
          "name": "saltNonce",
          "type": "uint256"
        }
      ],
      "name": "createProxyWithNonce",
      "outputs": [
        {
          "internalType": "contract SafeProxy",
          "name": "proxy",
          "type": "address"
        }
      ],
      "stateMutability": "nonpayable",
      "type": "function"
    },
    {
      "inputs": [],
      "name": "getChainId",
      "outputs": [
        {
          "internalType": "uint256",
          "name": "",
          "type": "uint256"
        }
      ],
      "stateMutability": "view",
      "type": "function"
    },
    {
      "inputs": [],
      "name": "proxyCreationCode",
      "outputs": [
        {
          "internalType": "bytes",
          "name": "",
          "type": "bytes"
        }
      ],
      "stateMutability": "pure",
      "type": "function"
    }
  ],
  "bytecode": "0x608060405234801561001057600080fd5b5061069a806100206000396000f3fe608060405234801561001057600080fd5b50600436106100575760003560e01c80631688f0b91461005c5780633408e4701461008c57806353e5d9351461009a578063d18af54d146100af578063ec9e80bb146100c2575b600080fd5b61006f61006a366004610408565b6100d5565b6040516001600160a01b0390911681526020015b60405180910390f35b604051468152602001610083565b6100a261016a565b60405161008391906104b1565b61006f6100bd3660046104cb565b610194565b61006f6100d0366004610408565b61026a565b6000808380519060200120836040516020016100fb929190918252602082015260400190565b60405160208183030381529060405280519060200120905061011e85858361029c565b6040516001600160a01b038781168252919350908316907f4f51faf6c4561ff95f067657e43439f0f856d97c04d9ec9070a6199ad418e2359060200160405180910390a2509392505050565b60606040518060200161017c90610341565b601f1982820381018352601f90910116604052919050565b60008083836040516020016101c592919091825260601b6bffffffffffffffffffffffff1916602082015260340190565b6040516020818303038152906040528051906020012060001c90506101eb8686836100d5565b91506001600160a01b03831615610261576040516303ca56a360e31b81526001600160a01b03841690631e52b5189061022e9085908a908a908a90600401610537565b600060405180830381600087803b15801561024857600080fd5b505af115801561025c573d6000803e3d6000fd5b505050505b50949350505050565b60008083805190602001208361027d4690565b60408051602081019490945283019190915260608201526080016100fb565b6000833b6102a957600080fd5b6000604051806020016102bb90610341565b601f1982820381018352601f9091011660408190526102e891906001600160a01b03881690602001610574565b6040516020818303038152906040529050828151826020016000f591506001600160a01b03821661031857600080fd5b8351156103395760008060008651602088016000875af10361033957600080fd5b509392505050565b60f78061059783390190565b6001600160a01b038116811461036257600080fd5b50565b634e487b7160e01b600052604160045260246000fd5b600082601f83011261038c57600080fd5b813567ffffffffffffffff808211156103a7576103a7610365565b604051601f8301601f19908116603f011681019082821181831017156103cf576103cf610365565b816040528381528660208588010111156103e857600080fd5b836020870160208301376000602085830101528094505050505092915050565b60008060006060848603121561041d57600080fd5b83356104288161034d565b9250602084013567ffffffffffffffff81111561044457600080fd5b6104508682870161037b565b925050604084013590509250925092565b60005b8381101561047c578181015183820152602001610464565b50506000910152565b6000815180845261049d816020860160208601610461565b601f01601f19169290920160200192915050565b6020815260006104c46020830184610485565b9392505050565b600080600080608085870312156104e157600080fd5b84356104ec8161034d565b9350602085013567ffffffffffffffff81111561050857600080fd5b6105148782880161037b565b93505060408501359150606085013561052c8161034d565b939692955090935050565b6001600160a01b0385811682528416602082015260806040820181905260009061056390830185610485565b905082606083015295945050505050565b60008351610586818460208801610461565b919091019182525060200191905056fe608060405234801561001057600080fd5b506040516100f73803806100f783398101604081905261002f91610067565b6001600160a01b03811661004257600080fd5b600080546001600160a01b0319166001600160a01b0392909216919091179055610097565b60006020828403121561007957600080fd5b81516001600160a01b038116811461009057600080fd5b9392505050565b6052806100a56000396000f3fe6080604052600080546001600160a01b0316632cf35bc960e11b823501602757808252602082f35b3682833781823684845af490503d82833e806040573d82fd5b503d81f3fea164736f6c6343000814000aa164736f6c6343000814000a",
  "linkReferences": {},
  "deployedLinkReferences": {}
}