{
  "_format": "hh-sol-artifact-1",
  "contractName": "SafeTests",
  "sourceName": "src/LUXSale.test.sol",
  "abi": [
    {
      "inputs": [],
      "name": "safe",
      "outputs": [
        {
          "internalType": "contract Safe",
          "name": "",
          "type": "address"
        }
      ],
      "stateMutability": "view",
      "type": "function"
    },
    {
      "inputs": [],
      "name": "sale",
      "outputs": [
        {
          "internalType": "contract TestableLUXSale",
          "name": "",
          "type": "address"
        }
      ],
      "stateMutability": "view",
      "type": "function"
    },
    {
      "inputs": [],
      "name": "setUp",
      "outputs": [],
      "stateMutability": "nonpayable",
      "type": "function"
    },
    {
      "inputs": [],
      "name": "testRegister",
      "outputs": [],
      "stateMutability": "nonpayable",
      "type": "function"
    },
    {
      "inputs": [],
      "name": "user1",
      "outputs": [
        {
          "internalType": "contract SafeUser",
          "name": "",
          "type": "address"
        }
      ],
      "stateMutability": "view",
      "type": "function"
    },
    {
      "inputs": [],
      "name": "user2",
      "outputs": [
        {
          "internalType": "contract SafeUser",
          "name": "",
          "type": "address"
        }
      ],
      "stateMutability": "view",
      "type": "function"
    }
  ],
  "bytecode": "0x608060405234801561001057600080fd5b50615649806100206000396000f3fe60806040523480156200001157600080fd5b50600436106200006a5760003560e01c80630a38e004146200006f5780630a9254e4146200007b578063186f035414620000855780636ad1fe0214620000b5578063ac1717b014620000c9578063b9edb1af14620000dd575b600080fd5b62000079620000f1565b005b62000079620001df565b60035462000099906001600160a01b031681565b6040516001600160a01b03909116815260200160405180910390f35b60005462000099906001600160a01b031681565b60015462000099906001600160a01b031681565b60025462000099906001600160a01b031681565b60405160206024820152600360448201526261626360e81b606482015260009060840160408051601f198184030181529181526020820180516001600160e01b03166379614c5f60e11b17905260035460008054925163353b090160e11b8152939450926001600160a01b0391821692636a76120292620001889291169085908790829081908190819081908190600401620006dd565b6020604051808303816000875af1158015620001a8573d6000803e3d6000fd5b505050506040513d601f19601f82011682018060405250810190620001ce91906200078a565b905080620001db57600080fd5b5050565b60408051808201909152600a815269666f756e6465724b657960b01b60208201526005680878678326eac90000426200021c8162015180620007b5565b678ac7230489e800008565640b5eece00060016040516200023d906200065d565b62000250989796959493929190620007dd565b604051809103906000f0801580156200026d573d6000803e3d6000fd5b50600080546001600160a01b0319166001600160a01b03929092169182179055604051630502ca6b60e01b8152620151806004820152630502ca6b90602401600060405180830381600087803b158015620002c757600080fd5b505af1158015620002dc573d6000803e3d6000fd5b50505050604051620002ee906200066b565b604051809103906000f0801580156200030b573d6000803e3d6000fd5b50600180546001600160a01b0319166001600160a01b03929092169190911790556040516200033a906200066b565b604051809103906000f08015801562000357573d6000803e3d6000fd5b50600280546001600160a01b0319166001600160a01b03929092169190911790556040805160038082526080820190925260009160208201606080368337505060015482519293506001600160a01b031691839150600090620003be57620003be62000829565b6001600160a01b039283166020918202929092010152600254825191169082906001908110620003f257620003f262000829565b60200260200101906001600160a01b031690816001600160a01b031681525050308160028151811062000429576200042962000829565b60200260200101906001600160a01b031690816001600160a01b0316815250506000604051620004599062000679565b604051809103906000f08015801562000476573d6000803e3d6000fd5b509050600082600260008060008060006040516024016200049e97969594939291906200083f565b60408051601f198184030181529181526020820180516001600160e01b031663b63e800d60e01b1790525190915060009081906001600160a01b03851690631688f0b990620004ed9062000687565b604051809103906000f0801580156200050a573d6000803e3d6000fd5b5085856040518463ffffffff1660e01b81526004016200052d93929190620008da565b6020604051808303816000875af11580156200054d573d6000803e3d6000fd5b505050506040513d601f19601f8201168201806040525081019062000573919062000910565b600380546001600160a01b0319166001600160a01b03838116918217909255600154604051631c9b070f60e21b8152600481019290925292935083928392169063726c1c3c90602401600060405180830381600087803b158015620005d757600080fd5b505af1158015620005ec573d6000803e3d6000fd5b5050600254600354604051631c9b070f60e21b81526001600160a01b0391821660048201529116925063726c1c3c9150602401600060405180830381600087803b1580156200063a57600080fd5b505af11580156200064f573d6000803e3d6000fd5b505050505050505050505050565b611a76806200093c83390190565b61018c80620023b283390190565b6106ba806200253e83390190565b612a458062002bf883390190565b6000815180845260005b81811015620006bd576020818501810151868301820152016200069f565b506000602082860101526020601f19601f83011685010191505092915050565b6001600160a01b038a16815260208101899052610140604082018190526000906200070b8382018b62000695565b9050600289106200072c57634e487b7160e01b600052602160045260246000fd5b8860608401528760808401528660a08401528560c08401526200075a60e08401866001600160a01b03169052565b6001600160a01b039390931661010083015250808203610120909101526000815260200198975050505050505050565b6000602082840312156200079d57600080fd5b81518015158114620007ae57600080fd5b9392505050565b80820180821115620007d757634e487b7160e01b600052601160045260246000fd5b92915050565b60006101008a83528960208401528860408401528760608401528660808401528060a0840152620008118184018762000695565b60c0840195909552505060e001529695505050505050565b634e487b7160e01b600052603260045260246000fd5b6101008082528851908201819052600090610120830190602090818c01845b82811015620008855781516001600160a01b0316855293830193908301906001016200085e565b50505060ff998a16908401526001600160a01b03978816604084015282810360608401526000815295871660808301525092851660a0840152941660c08201529290911660e090920191909152602001919050565b6001600160a01b0384168152606060208201819052600090620009009083018562000695565b9050826040830152949350505050565b6000602082840312156200092357600080fd5b81516001600160a01b0381168114620007ae57600080fdfe60806040523480156200001157600080fd5b5060405162001a7638038062001a7683398101604081905262000034916200019f565b878787878787878733806200006357604051631e4fbdf760e01b81526000600482015260240160405180910390fd5b6200006e8162000139565b5060018055876200007e57600080fd5b8387116200008b57600080fd5b8486106200009857600080fd5b600988905560038790556006869055600885905560048490556005620000bf848262000344565b50600b829055600c819055600354606490620000dd90601462000426565b620000e9919062000446565b60078190555060095460075460045460035462000107919062000469565b62000113919062000469565b6200011f919062000446565b600a55506200047f9e505050505050505050505050505050565b600080546001600160a01b038381166001600160a01b0319831681178455604051919092169283917f8be0079c531659141344cd1fd0a4f28419497f9722a3daafe3b4186f6b6457e09190a35050565b634e487b7160e01b600052604160045260246000fd5b600080600080600080600080610100898b031215620001bd57600080fd5b885197506020808a0151975060408a0151965060608a0151955060808a0151945060a08a015160018060401b0380821115620001f857600080fd5b818c0191508c601f8301126200020d57600080fd5b81518181111562000222576200022262000189565b604051601f8201601f19908116603f011681019083821181831017156200024d576200024d62000189565b816040528281528f868487010111156200026657600080fd5b600093505b828410156200028a57848401860151818501870152928501926200026b565b60009281019095019190915250505060c08a015160e0909a0151989b979a5095989497939692505050565b600181811c90821680620002ca57607f821691505b602082108103620002eb57634e487b7160e01b600052602260045260246000fd5b50919050565b601f8211156200033f57600081815260208120601f850160051c810160208610156200031a5750805b601f850160051c820191505b818110156200033b5782815560010162000326565b5050505b505050565b81516001600160401b0381111562000360576200036062000189565b6200037881620003718454620002b5565b84620002f1565b602080601f831160018114620003b05760008415620003975750858301515b600019600386901b1c1916600185901b1785556200033b565b600085815260208120601f198616915b82811015620003e157888601518255948401946001909101908401620003c0565b5085821015620004005787850151600019600388901b60f8161c191681555b5050505050600190811b01905550565b634e487b7160e01b600052601160045260246000fd5b808202811582820484141762000440576200044062000410565b92915050565b6000826200046457634e487b7160e01b600052601260045260246000fd5b500490565b8181038181111562000440576200044062000410565b6115e7806200048f6000396000f3fe6080604052600436106101ee5760003560e01c80637d34f5ac1161010d578063cfae52e1116100a0578063e52253811161006f578063e522538114610540578063e9f6bd0b14610555578063f2c298be1461056b578063f2fde38b1461058b578063f96512cc146105ab57600080fd5b8063cfae52e1146104d5578063d1058e59146104eb578063d174d58414610500578063d90c17591461052057600080fd5b8063b4256888116100dc578063b425688814610474578063b74e452b1461048a578063c4d66de81461049f578063c7876ea4146104bf57600080fd5b80637d34f5ac146103ed5780638da5cb5b1461041a57806392724df41461044c578063a6f2ae3a1461046c57600080fd5b8063389ae4d11161018557806362a5af3b1161015457806362a5af3b1461038d578063670d14b2146103a2578063715018a6146103c257806378e97925146103d757600080fd5b8063389ae4d1146102fd5780633904e1bf1461031f57806353014d67146103575780635ca811391461036d57600080fd5b806316ada547116101c157806316ada5471461029c57806318160ddd146102b15780631db580fa146102c7578063379607f5146102dd57600080fd5b80630502ca6b146101f35780630842d27114610215578063120aa8771461022857806316743ca614610278575b600080fd5b3480156101ff57600080fd5b5061021361020e366004610fb0565b6105c1565b005b610213610223366004610fc9565b6105e3565b34801561023457600080fd5b5061026361024336600461100a565b600f60209081526000928352604080842090915290825290205460ff1681565b60405190151581526020015b60405180910390f35b34801561028457600080fd5b5061028e60115481565b60405190815260200161026f565b3480156102a857600080fd5b5060115461028e565b3480156102bd57600080fd5b5061028e60035481565b3480156102d357600080fd5b5061028e60045481565b3480156102e957600080fd5b506102136102f8366004610fb0565b61071c565b34801561030957600080fd5b5061031261089f565b60405161026f919061103a565b34801561032b57600080fd5b5061028e61033a36600461100a565b600e60209081526000928352604080842090915290825290205481565b34801561036357600080fd5b5061028e600c5481565b34801561037957600080fd5b5061028e610388366004610fb0565b61092d565b34801561039957600080fd5b50610213610947565b3480156103ae57600080fd5b506103126103bd366004611088565b610a67565b3480156103ce57600080fd5b50610213610a80565b3480156103e357600080fd5b5061028e60085481565b3480156103f957600080fd5b5061028e610408366004610fb0565b600d6020526000908152604090205481565b34801561042657600080fd5b506000546001600160a01b03165b6040516001600160a01b03909116815260200161026f565b34801561045857600080fd5b5061028e610467366004610fb0565b610a94565b610213610ad2565b34801561048057600080fd5b5061028e60065481565b34801561049657600080fd5b5061028e610afb565b3480156104ab57600080fd5b506102136104ba366004611088565b610b0e565b3480156104cb57600080fd5b5061028e600b5481565b3480156104e157600080fd5b5061028e60075481565b3480156104f757600080fd5b50610213610d0b565b34801561050c57600080fd5b50600254610434906001600160a01b031681565b34801561052c57600080fd5b5061028e61053b366004610fb0565b610d5e565b34801561054c57600080fd5b50610213610d9d565b34801561056157600080fd5b5061028e60095481565b34801561057757600080fd5b506102136105863660046110c2565b610e3b565b34801561059757600080fd5b506102136105a6366004611088565b610ec9565b3480156105b757600080fd5b5061028e600a5481565b6105c9610f09565b80601160008282546105db9190611189565b909155505050565b6105eb610f36565b600654601154101580156106085750600954610605610afb565b11155b61061157600080fd5b662386f26fc1000034101561062557600080fd5b61062d610afb565b831015801561063e57506009548311155b61064757600080fd5b600061065284610a94565b90508082101561066157600080fd5b6000848152600e602090815260408083203384529091528120805434929061068a908490611189565b90915550506000848152600d6020526040812080543492906106ad908490611189565b909155505082156106d3576000848152600d60205260409020548310156106d357600080fd5b6040805185815234602082015233917fe054057d0479c6218d6ec87be73f88230a7e4e1f064cee6e7504e2c4cd9d6150910160405180910390a25061071760018055565b505050565b610724610f36565b8061072d610afb565b1161073757600080fd5b6000818152600f6020908152604080832033845290915290205460ff168061076b57506000818152600d6020526040902054155b610893576000818152600d6020908152604080832054600e8352818420338552909252822054909161079c8461092d565b90506000836107ab848461119c565b6107b591906111b3565b6000868152600f6020908152604080832033808552925291829020805460ff19166001179055600254915163a9059cbb60e01b81526004810191909152602481018390529192506001600160a01b03169063a9059cbb906044016020604051808303816000875af115801561082e573d6000803e3d6000fd5b505050506040513d601f19601f8201168201806040525081019061085291906111d5565b50604080518681526020810183905233917f51223fdc0a25891366fb358b4af9fe3c381b1566e287c61a29d01c8a173fe4f4910160405180910390a2505050505b61089c60018055565b50565b600580546108ac906111f7565b80601f01602080910402602001604051908101604052809291908181526020018280546108d8906111f7565b80156109255780601f106108fa57610100808354040283529160200191610925565b820191906000526020600020905b81548152906001019060200180831161090857829003601f168201915b505050505081565b6000811561093d57600a54610941565b6007545b92915050565b61094f610f09565b60095461095d906001611189565b610965610afb565b1161096f57600080fd5b6002546040516370a0823160e01b81523060048201526000916001600160a01b0316906370a0823190602401602060405180830381865afa1580156109b8573d6000803e3d6000fd5b505050506040513d601f19601f820116820180604052508101906109dc9190611231565b600254604051630852cd8d60e31b8152600481018390529192506001600160a01b0316906342966c6890602401600060405180830381600087803b158015610a2357600080fd5b505af1158015610a37573d6000803e3d6000fd5b50506040517fad487f3c412409f5b36d6b5ae6f3bb9c34e15234b3e9f101bb6ef0d584593c61925060009150a150565b601060205260009081526040902080546108ac906111f7565b610a88610f09565b610a926000610f60565b565b6000610aa182606461132e565b82600c546064610ab19190611189565b610abb919061132e565b600b54610ac8919061119c565b61094191906111b3565b6000610adc610afb565b90506000610ae982610a94565b9050610af7826000836105e3565b5050565b6000610b0961053b60115490565b905090565b610b16610f09565b6002546001600160a01b031615610b2c57600080fd5b806001600160a01b03166318160ddd6040518163ffffffff1660e01b8152600401602060405180830381865afa158015610b6a573d6000803e3d6000fd5b505050506040513d601f19601f82011682018060405250810190610b8e9190611231565b15610b9857600080fd5b600280546001600160a01b0319166001600160a01b0383169081179091556003546040516340c10f1960e01b815230600482015260248101919091526340c10f1990604401600060405180830381600087803b158015610bf757600080fd5b505af1158015610c0b573d6000803e3d6000fd5b50506002546004805460405163a9059cbb60e01b8152739011e888251ab053b7bd1cdb598db4f9ded9471492810183905260248101919091529093506001600160a01b03909116915063a9059cbb906044016020604051808303816000875af1158015610c7c573d6000803e3d6000fd5b505050506040513d601f19601f82011682018060405250810190610ca091906111d5565b506001600160a01b0381166000908152601060205260409020610cc4600582611388565b50806001600160a01b03167fd80364ba2cbb1e827ab8adac9651cdfc27fb7b61c0a95663cb80b82d7636ad226005604051610cff9190611469565b60405180910390a25050565b6000610d15610afb565b905060005b81811015610af7576000818152600f6020908152604080832033845290915290205460ff16610d4c57610d4c8161071c565b80610d56816114f4565b915050610d1a565b60006008548210610d95576201518060085483610d7b919061150d565b610d8591906111b3565b610d90906001611189565b610941565b600092915050565b610da5610f09565b6000610daf610afb565b11610db957600080fd5b47610dcc6000546001600160a01b031690565b6001600160a01b03166108fc829081150290604051600060405180830381858888f19350505050158015610e04573d6000803e3d6000fd5b506040518181527f4ceba015d961d93f1d6825703b730a8ba05619c005dfd8073aee773dc6725fbb9060200160405180910390a150565b600954610e49906001611189565b610e51610afb565b1115610e5c57600080fd5b604081511115610e6b57600080fd5b336000908152601060205260409020610e848282611520565b50336001600160a01b03167fd80364ba2cbb1e827ab8adac9651cdfc27fb7b61c0a95663cb80b82d7636ad2282604051610ebe919061103a565b60405180910390a250565b610ed1610f09565b6001600160a01b038116610f0057604051631e4fbdf760e01b8152600060048201526024015b60405180910390fd5b61089c81610f60565b6000546001600160a01b03163314610a925760405163118cdaa760e01b8152336004820152602401610ef7565b600260015403610f5957604051633ee5aeb560e01b815260040160405180910390fd5b6002600155565b600080546001600160a01b038381166001600160a01b0319831681178455604051919092169283917f8be0079c531659141344cd1fd0a4f28419497f9722a3daafe3b4186f6b6457e09190a35050565b600060208284031215610fc257600080fd5b5035919050565b600080600060608486031215610fde57600080fd5b505081359360208301359350604090920135919050565b6001600160a01b038116811461089c57600080fd5b6000806040838503121561101d57600080fd5b82359150602083013561102f81610ff5565b809150509250929050565b600060208083528351808285015260005b818110156110675785810183015185820160400152820161104b565b506000604082860101526040601f19601f8301168501019250505092915050565b60006020828403121561109a57600080fd5b81356110a581610ff5565b9392505050565b634e487b7160e01b600052604160045260246000fd5b6000602082840312156110d457600080fd5b813567ffffffffffffffff808211156110ec57600080fd5b818401915084601f83011261110057600080fd5b813581811115611112576111126110ac565b604051601f8201601f19908116603f0116810190838211818310171561113a5761113a6110ac565b8160405282815287602084870101111561115357600080fd5b826020860160208301376000928101602001929092525095945050505050565b634e487b7160e01b600052601160045260246000fd5b8082018082111561094157610941611173565b808202811582820484141761094157610941611173565b6000826111d057634e487b7160e01b600052601260045260246000fd5b500490565b6000602082840312156111e757600080fd5b815180151581146110a557600080fd5b600181811c9082168061120b57607f821691505b60208210810361122b57634e487b7160e01b600052602260045260246000fd5b50919050565b60006020828403121561124357600080fd5b5051919050565b600181815b8085111561128557816000190482111561126b5761126b611173565b8085161561127857918102915b93841c939080029061124f565b509250929050565b60008261129c57506001610941565b816112a957506000610941565b81600181146112bf57600281146112c9576112e5565b6001915050610941565b60ff8411156112da576112da611173565b50506001821b610941565b5060208310610133831016604e8410600b8410161715611308575081810a610941565b611312838361124a565b806000190482111561132657611326611173565b029392505050565b60006110a5838361128d565b601f82111561071757600081815260208120601f850160051c810160208610156113615750805b601f850160051c820191505b818110156113805782815560010161136d565b505050505050565b818103611393575050565b61139d82546111f7565b67ffffffffffffffff8111156113b5576113b56110ac565b6113c9816113c384546111f7565b8461133a565b6000601f8211600181146113fd57600083156113e55750848201545b600019600385901b1c1916600184901b178455611462565b600085815260209020601f19841690600086815260209020845b838110156114375782860154825560019586019590910190602001611417565b50858310156114555781850154600019600388901b60f8161c191681555b50505060018360011b0184555b5050505050565b600060208083526000845461147d816111f7565b8084870152604060018084166000811461149e57600181146114b8576114e6565b60ff1985168984015283151560051b8901830195506114e6565b896000528660002060005b858110156114de5781548b82018601529083019088016114c3565b8a0184019650505b509398975050505050505050565b60006001820161150657611506611173565b5060010190565b8181038181111561094157610941611173565b815167ffffffffffffffff81111561153a5761153a6110ac565b611548816113c384546111f7565b602080601f83116001811461157d57600084156115655750858301515b600019600386901b1c1916600185901b178555611380565b600085815260208120601f198616915b828110156115ac5788860151825594840194600190910190840161158d565b50858210156115ca5787850151600019600388901b60f8161c191681555b5050505050600190811b0190555056fea164736f6c6343000814000a608060405234801561001057600080fd5b5061016c806100206000396000f3fe608060405234801561001057600080fd5b50600436106100415760003560e01c8063186f035414610046578063726c1c3c14610075578063b84417b7146100a7575b600080fd5b600054610059906001600160a01b031681565b6040516001600160a01b03909116815260200160405180910390f35b6100a5610083366004610116565b600080546001600160a01b0319166001600160a01b0392909216919091179055565b005b6100a56100b5366004610146565b60005460405163d4d9bdcd60e01b8152600481018390526001600160a01b039091169063d4d9bdcd90602401600060405180830381600087803b1580156100fb57600080fd5b505af115801561010f573d6000803e3d6000fd5b5050505050565b60006020828403121561012857600080fd5b81356001600160a01b038116811461013f57600080fd5b9392505050565b60006020828403121561015857600080fd5b503591905056fea164736f6c6343000814000a608060405234801561001057600080fd5b5061069a806100206000396000f3fe608060405234801561001057600080fd5b50600436106100575760003560e01c80631688f0b91461005c5780633408e4701461008c57806353e5d9351461009a578063d18af54d146100af578063ec9e80bb146100c2575b600080fd5b61006f61006a366004610408565b6100d5565b6040516001600160a01b0390911681526020015b60405180910390f35b604051468152602001610083565b6100a261016a565b60405161008391906104b1565b61006f6100bd3660046104cb565b610194565b61006f6100d0366004610408565b61026a565b6000808380519060200120836040516020016100fb929190918252602082015260400190565b60405160208183030381529060405280519060200120905061011e85858361029c565b6040516001600160a01b038781168252919350908316907f4f51faf6c4561ff95f067657e43439f0f856d97c04d9ec9070a6199ad418e2359060200160405180910390a2509392505050565b60606040518060200161017c90610341565b601f1982820381018352601f90910116604052919050565b60008083836040516020016101c592919091825260601b6bffffffffffffffffffffffff1916602082015260340190565b6040516020818303038152906040528051906020012060001c90506101eb8686836100d5565b91506001600160a01b03831615610261576040516303ca56a360e31b81526001600160a01b03841690631e52b5189061022e9085908a908a908a90600401610537565b600060405180830381600087803b15801561024857600080fd5b505af115801561025c573d6000803e3d6000fd5b505050505b50949350505050565b60008083805190602001208361027d4690565b60408051602081019490945283019190915260608201526080016100fb565b6000833b6102a957600080fd5b6000604051806020016102bb90610341565b601f1982820381018352601f9091011660408190526102e891906001600160a01b03881690602001610574565b6040516020818303038152906040529050828151826020016000f591506001600160a01b03821661031857600080fd5b8351156103395760008060008651602088016000875af10361033957600080fd5b509392505050565b60f78061059783390190565b6001600160a01b038116811461036257600080fd5b50565b634e487b7160e01b600052604160045260246000fd5b600082601f83011261038c57600080fd5b813567ffffffffffffffff808211156103a7576103a7610365565b604051601f8301601f19908116603f011681019082821181831017156103cf576103cf610365565b816040528381528660208588010111156103e857600080fd5b836020870160208301376000602085830101528094505050505092915050565b60008060006060848603121561041d57600080fd5b83356104288161034d565b9250602084013567ffffffffffffffff81111561044457600080fd5b6104508682870161037b565b925050604084013590509250925092565b60005b8381101561047c578181015183820152602001610464565b50506000910152565b6000815180845261049d816020860160208601610461565b601f01601f19169290920160200192915050565b6020815260006104c46020830184610485565b9392505050565b600080600080608085870312156104e157600080fd5b84356104ec8161034d565b9350602085013567ffffffffffffffff81111561050857600080fd5b6105148782880161037b565b93505060408501359150606085013561052c8161034d565b939692955090935050565b6001600160a01b0385811682528416602082015260806040820181905260009061056390830185610485565b905082606083015295945050505050565b60008351610586818460208801610461565b919091019182525060200191905056fe608060405234801561001057600080fd5b506040516100f73803806100f783398101604081905261002f91610067565b6001600160a01b03811661004257600080fd5b600080546001600160a01b0319166001600160a01b0392909216919091179055610097565b60006020828403121561007957600080fd5b81516001600160a01b038116811461009057600080fd5b9392505050565b6052806100a56000396000f3fe6080604052600080546001600160a01b0316632cf35bc960e11b823501602757808252602082f35b3682833781823684845af490503d82833e806040573d82fd5b503d81f3fea164736f6c6343000814000aa164736f6c6343000814000a608060405234801561001057600080fd5b506001600455612a20806100256000396000f3fe6080604052600436106101d15760003560e01c8063affed0e0116100f7578063e19a9dd911610095578063f08a032311610064578063f08a0323146105f5578063f698da2514610615578063f8dc5dd91461062a578063ffa1ad741461064a5761020d565b8063e19a9dd914610580578063e318b52b146105a0578063e75235b8146105c0578063e86637db146105d55761020d565b8063cc2f8452116100d1578063cc2f8452146104f2578063d4d9bdcd14610520578063d8d11f7814610540578063e009cfde146105605761020d565b8063affed0e01461049c578063b4faba09146104b2578063b63e800d146104d25761020d565b80635624b25b1161016f5780636a7612021161013e5780636a7612021461040f5780637d83297414610422578063934f3a111461045a578063a0e67e2b1461047a5761020d565b80635624b25b146103755780635ae6bd37146103a2578063610b5925146103cf578063694e80c3146103ef5761020d565b80632f54bf6e116101ab5780632f54bf6e146102ea5780633408e4701461030a578063468721a7146103275780635229073f146103475761020d565b80630d582f131461027357806312fb68e0146102955780632d9ad53d146102b55761020d565b3661020d5760405134815233907f3d0ce9bfc3ed7d6862dbb28b2dea94561fe714a1b4d019aa8af39730d1ad7c3d9060200160405180910390a2005b34801561021957600080fd5b507f6c9a6c4a39284e37ed1cf53d337577d14212a4870fb976a4366c693b939918d580548061024457005b36600080373360601b365260008060143601600080855af190503d6000803e8061026d573d6000fd5b503d6000f35b34801561027f57600080fd5b5061029361028e366004611f82565b61067b565b005b3480156102a157600080fd5b506102936102b0366004612051565b6107a4565b3480156102c157600080fd5b506102d56102d03660046120c6565b610af4565b60405190151581526020015b60405180910390f35b3480156102f657600080fd5b506102d56103053660046120c6565b610b2f565b34801561031657600080fd5b50465b6040519081526020016102e1565b34801561033357600080fd5b506102d56103423660046120f2565b610b67565b34801561035357600080fd5b506103676103623660046120f2565b610c15565b6040516102e19291906121a2565b34801561038157600080fd5b506103956103903660046121bd565b610c4b565b6040516102e191906121df565b3480156103ae57600080fd5b506103196103bd3660046121f2565b60076020526000908152604090205481565b3480156103db57600080fd5b506102936103ea3660046120c6565b610cd1565b3480156103fb57600080fd5b5061029361040a3660046121f2565b610db4565b6102d561041d366004612254565b610e14565b34801561042e57600080fd5b5061031961043d366004611f82565b600860209081526000928352604080842090915290825290205481565b34801561046657600080fd5b5061029361047536600461232d565b611109565b34801561048657600080fd5b5061048f611128565b6040516102e191906123de565b3480156104a857600080fd5b5061031960055481565b3480156104be57600080fd5b506102936104cd3660046123f1565b611219565b3480156104de57600080fd5b506102936104ed366004612441565b61123c565b3480156104fe57600080fd5b5061051261050d366004611f82565b61133e565b6040516102e1929190612536565b34801561052c57600080fd5b5061029361053b3660046121f2565b6114a4565b34801561054c57600080fd5b5061031961055b366004612560565b61150e565b34801561056c57600080fd5b5061029361057b366004612621565b61153b565b34801561058c57600080fd5b5061029361059b3660046120c6565b611607565b3480156105ac57600080fd5b506102936105bb36600461265a565b6116f2565b3480156105cc57600080fd5b50600454610319565b3480156105e157600080fd5b506103956105f0366004612560565b611869565b34801561060157600080fd5b506102936106103660046120c6565b611942565b34801561062157600080fd5b5061031961198a565b34801561063657600080fd5b506102936106453660046126a5565b6119e1565b34801561065657600080fd5b5061039560405180604001604052806005815260200164312e342e3160d81b81525081565b610683611afb565b6001600160a01b038216158015906106a557506001600160a01b038216600114155b80156106ba57506001600160a01b0382163014155b6106c357600080fd5b6001600160a01b0382811660009081526002602052604090205416156106e857600080fd5b60026020527fe90b7bceb6e7df5418fb78d8ee546e97c83a08bbccc01a0644d599ccd2a7c2e080546001600160a01b038481166000818152604081208054939094166001600160a01b031993841617909355600183528354909116179091556003805491610755836126fc565b90915550506040516001600160a01b038316907f9465fa0c962cc76958e6373a993326400c1c94f8be2fe3a952adfa7f60b2ea2690600090a280600454146107a0576107a081610db4565b5050565b6107af816041611b09565b825110156107bc57600080fd5b6000808060008060005b86811015610ae8576041818102890160208101516040820151919092015160ff169550909350915060008490036108fd57885160208a01208a1461080957600080fd5b9193508391610819876041611b09565b82101561082557600080fd5b8751610832836020611b45565b111561083d57600080fd5b60208289018101518951909161086090839061085a908790611b45565b90611b45565b111561086b57600080fd5b6040516320c13b0b60e01b8082528a8501602001916001600160a01b038916906320c13b0b906108a1908f908690600401612715565b602060405180830381865afa1580156108be573d6000803e3d6000fd5b505050506040513d601f19601f820116820180604052508101906108e2919061273a565b6001600160e01b031916146108f657600080fd5b5050610a79565b8360ff16600103610954579193508391336001600160a01b038416148061094657506001600160a01b03851660009081526008602090815260408083208d845290915290205415155b61094f57600080fd5b610a79565b601e8460ff161115610a19576040517f19457468657265756d205369676e6564204d6573736167653a0a3332000000006020820152603c81018b9052600190605c01604051602081830303815290604052805190602001206004866109b99190612764565b6040805160008152602081018083529390935260ff90911690820152606081018590526080810184905260a0016020604051602081039080840390855afa158015610a08573d6000803e3d6000fd5b505050602060405103519450610a79565b6040805160008152602081018083528c905260ff861691810191909152606081018490526080810183905260019060a0016020604051602081039080840390855afa158015610a6c573d6000803e3d6000fd5b5050506020604051035194505b856001600160a01b0316856001600160a01b0316118015610ab357506001600160a01b038581166000908152600260205260409020541615155b8015610ac957506001600160a01b038516600114155b610ad257600080fd5b8495508080610ae0906126fc565b9150506107c6565b50505050505050505050565b600060016001600160a01b03831614801590610b2957506001600160a01b038281166000908152600160205260409020541615155b92915050565b60006001600160a01b038216600114801590610b295750506001600160a01b0390811660009081526002602052604090205416151590565b600033600114801590610b915750336000908152600160205260409020546001600160a01b031615155b610b9a57600080fd5b610ba985858585600019611b61565b90508015610be15760405133907f6895c13664aa4f67288b25d7a21d7aaa34916e355fb9b6fae0a139a9085becb890600090a2610c0d565b60405133907facd2c8702804128fdb0db2bb49f6d127dd0181c13fd45dbfe16de0930e2bd37590600090a25b949350505050565b60006060610c2586868686610b67565b915060405160203d0181016040523d81523d6000602083013e8091505094509492505050565b60606000610c5a83602061277d565b67ffffffffffffffff811115610c7257610c72611fae565b6040519080825280601f01601f191660200182016040528015610c9c576020820181803683370190505b50905060005b83811015610cc9578481015460208083028401015280610cc1816126fc565b915050610ca2565b509392505050565b610cd9611afb565b6001600160a01b03811615801590610cfb57506001600160a01b038116600114155b610d0457600080fd5b6001600160a01b038181166000908152600160205260409020541615610d2957600080fd5b600160208190527fcc69885fda6bcc1a4ace058b4a62bf5e179ea78fd58a1ccd71c22cc9b688792f80546001600160a01b03848116600081815260408082208054949095166001600160a01b031994851617909455948552835490911681179092555190917fecdf3a3effea5783a3c4c2140e677577666428d44ed9d474a0b3a4c9943f844091a250565b610dbc611afb565b600354811115610dcb57600080fd5b6001811015610dd957600080fd5b60048190556040518181527f610f7ff2b304ae8903c3de74c60c6ab1f7d6226b3f52c5161905bb5ad4039c939060200160405180910390a150565b6000806000610e2e8e8e8e8e8e8e8e8e8e8e600554611869565b600580549192506000610e40836126fc565b9091555050805160208201209150610e59828286611109565b506000610e847f4a204f620c8c5ccdca3fd54d003badd85ba500436a431f0cbda4f558c93c34c85490565b90506001600160a01b03811615610f0a57806001600160a01b03166375f0bb528f8f8f8f8f8f8f8f8f8f8f336040518d63ffffffff1660e01b8152600401610ed79c9b9a999897969594939291906127cc565b600060405180830381600087803b158015610ef157600080fd5b505af1158015610f05573d6000803e3d6000fd5b505050505b610f36610f198a6109c4612891565b603f610f268c604061277d565b610f3091906128a4565b90611ba8565b610f42906101f4612891565b5a1015610f4e57600080fd5b60005a9050610fbf8f8f8f8f8080601f016020809104026020016040519081016040528093929190818152602001838380828437600081840152601f19601f820116905080830192505050505050508e8c600014610fac578e611b61565b6109c45a610fba91906128c6565b611b61565b9350610fcc5a8290611bbf565b90508380610fd957508915155b80610fe357508715155b610fec57600080fd5b6000881561100457611001828b8b8b8b611bda565b90505b841561104957837f442e715f626346e8c54381002da614f62bee8d27386535b2521ec8540898556e8260405161103c91815260200190565b60405180910390a2611084565b837f23428b18acfb3ea64b08dc0c1d296ea9c09702c09083ca5272e64d115b687d238260405161107b91815260200190565b60405180910390a25b50506001600160a01b038116156110f857604051631264e26d60e31b81526004810183905283151560248201526001600160a01b03821690639327136890604401600060405180830381600087803b1580156110df57600080fd5b505af11580156110f3573d6000803e3d6000fd5b505050505b50509b9a5050505050505050505050565b6004548061111657600080fd5b611122848484846107a4565b50505050565b6060600060035467ffffffffffffffff81111561114757611147611fae565b604051908082528060200260200182016040528015611170578160200160208202803683370190505b506001600090815260026020527fe90b7bceb6e7df5418fb78d8ee546e97c83a08bbccc01a0644d599ccd2a7c2e054919250906001600160a01b03165b6001600160a01b03811660011461121157808383815181106111d1576111d16128d9565b6001600160a01b03928316602091820292909201810191909152918116600090815260029092526040909120541681611209816126fc565b9250506111ad565b509092915050565b600080825160208401855af480600052503d6020523d600060403e60403d016000fd5b61127a8a8a808060200260200160405190810160405280939291908181526020018383602002808284376000920191909152508c9250611c8a915050565b6001600160a01b038416156112925761129284611de1565b6112d28787878080601f016020809104026020016040519081016040528093929190818152602001838380828437600092019190915250611e1a92505050565b81156112e9576112e782600060018685611bda565b505b336001600160a01b03167f141df868a6331af528e38c83b7aa03edc19be66e37ae67f9285bf4f8e3c6a1a88b8b8b8b8960405161132a9594939291906128ef565b60405180910390a250505050505050505050565b606060006001600160a01b0384166001148061135e575061135e84610af4565b61136757600080fd5b6000831161137457600080fd5b8267ffffffffffffffff81111561138d5761138d611fae565b6040519080825280602002602001820160405280156113b6578160200160208202803683370190505b506001600160a01b03808616600090815260016020526040812054929450911691505b6001600160a01b038216158015906113fb57506001600160a01b038216600114155b801561140657508381105b15611461578183828151811061141e5761141e6128d9565b6001600160a01b03928316602091820292909201810191909152928116600090815260019093526040909220549091169080611459816126fc565b9150506113d9565b6001600160a01b038216600114611499578261147e6001836128c6565b8151811061148e5761148e6128d9565b602002602001015191505b808352509250929050565b336000908152600260205260409020546001600160a01b03166114c657600080fd5b336000818152600860209081526040808320858452909152808220600190555183917ff2a0eb156472d1440255b0d7c1e19cc07115d1051fe605b0dce69acfec884d9c91a350565b60006115238c8c8c8c8c8c8c8c8c8c8c611869565b8051906020012090509b9a5050505050505050505050565b611543611afb565b6001600160a01b0381161580159061156557506001600160a01b038116600114155b61156e57600080fd5b6001600160a01b0382811660009081526001602052604090205481169082161461159757600080fd5b6001600160a01b03818116600081815260016020526040808220805487861684528284208054919096166001600160a01b0319918216179095558383528054909416909355915190917faab4fa2b463f581b2b32cb3b7e3b704b9ce37cc209b5fb4d77e593ace405427691a25050565b61160f611afb565b6001600160a01b03811615611696576040516301ffc9a760e01b815263736bd41d60e11b60048201526001600160a01b038216906301ffc9a790602401602060405180830381865afa158015611669573d6000803e3d6000fd5b505050506040513d601f19601f8201168201806040525081019061168d919061295b565b61169657600080fd5b7f4a204f620c8c5ccdca3fd54d003badd85ba500436a431f0cbda4f558c93c34c88181556040516001600160a01b038316907f1151116914515bc0891ff9047a6cb32cf902546f83066499bcf8ba33d2353fa290600090a25050565b6116fa611afb565b6001600160a01b0381161580159061171c57506001600160a01b038116600114155b801561173157506001600160a01b0381163014155b61173a57600080fd5b6001600160a01b03818116600090815260026020526040902054161561175f57600080fd5b6001600160a01b0382161580159061178157506001600160a01b038216600114155b61178a57600080fd5b6001600160a01b038381166000908152600260205260409020548116908316146117b357600080fd5b6001600160a01b03828116600081815260026020526040808220805486861680855283852080549288166001600160a01b03199384161790559589168452828420805482169096179095558383528054909416909355915190917ff8d49fc529812e9a7c5c50e69c20f0dccc0db8fa95c98bc58cc9a4f1c1299eaf91a26040516001600160a01b038216907f9465fa0c962cc76958e6373a993326400c1c94f8be2fe3a952adfa7f60b2ea2690600090a2505050565b606060007fbb8310d486368db6bd6f849402fdd73ad53d316b5a4b2644ad6efe0f941286d860001b8d8d8d8d6040516118a392919061297d565b6040519081900381206118c9949392918e908e908e908e908e908e908e9060200161298d565b60408051601f1981840301815291905280516020909101209050601960f81b600160f81b6118f561198a565b6040516001600160f81b031993841660208201529290911660218301526022820152604281018290526062016040516020818303038152906040529150509b9a5050505050505050505050565b61194a611afb565b61195381611de1565b6040516001600160a01b038216907f5ac6c46c93c8d0e53714ba3b53db3e7c046da994313d7ed0d192028bc7c228b090600090a250565b60007f47e79534a245952e8b16893a336b85a3d9ea9fa8c573f3d803afb92a794692184660408051602081019390935282015230606082015260800160405160208183030381529060405280519060200120905090565b6119e9611afb565b8060016003546119f991906128c6565b1015611a0457600080fd5b6001600160a01b03821615801590611a2657506001600160a01b038216600114155b611a2f57600080fd5b6001600160a01b03838116600090815260026020526040902054811690831614611a5857600080fd5b6001600160a01b03828116600081815260026020526040808220805488861684529183208054929095166001600160a01b03199283161790945591815282549091169091556003805491611aab836129fc565b90915550506040516001600160a01b038316907ff8d49fc529812e9a7c5c50e69c20f0dccc0db8fa95c98bc58cc9a4f1c1299eaf90600090a28060045414611af657611af681610db4565b505050565b333014611b0757600080fd5b565b600082600003611b1b57506000610b29565b6000611b27838561277d565b905082611b3485836128a4565b14611b3e57600080fd5b9392505050565b600080611b528385612891565b905083811015611b3e57600080fd5b60006001836001811115611b7757611b77612794565b03611b8f576000808551602087018986f49050611b9f565b600080855160208701888a87f190505b95945050505050565b600081831015611bb85781611b3e565b5090919050565b600082821115611bce57600080fd5b6000610c0d83856128c6565b6000806001600160a01b03831615611bf25782611bf4565b325b90506001600160a01b038416611c5c57611c263a8610611c14573a611c16565b855b611c208989611b45565b90611b09565b6040519092506001600160a01b0382169083156108fc029084906000818181858888f19350505050611c5757600080fd5b611c80565b611c6a85611c208989611b45565b9150611c77848284611ecb565b611c8057600080fd5b5095945050505050565b60045415611c9757600080fd5b8151811115611ca557600080fd5b6001811015611cb357600080fd5b600160005b8351811015611dae576000848281518110611cd557611cd56128d9565b6020026020010151905060006001600160a01b0316816001600160a01b031614158015611d0c57506001600160a01b038116600114155b8015611d2157506001600160a01b0381163014155b8015611d3f5750806001600160a01b0316836001600160a01b031614155b611d4857600080fd5b6001600160a01b038181166000908152600260205260409020541615611d6d57600080fd5b6001600160a01b03928316600090815260026020526040902080546001600160a01b0319169382169390931790925580611da6816126fc565b915050611cb8565b506001600160a01b0316600090815260026020526040902080546001600160a01b03191660011790559051600355600455565b306001600160a01b03821603611df657600080fd5b7f6c9a6c4a39284e37ed1cf53d337577d14212a4870fb976a4366c693b939918d555565b600160008190526020527fcc69885fda6bcc1a4ace058b4a62bf5e179ea78fd58a1ccd71c22cc9b688792f546001600160a01b031615611e5957600080fd5b6001600081905260208190527fcc69885fda6bcc1a4ace058b4a62bf5e179ea78fd58a1ccd71c22cc9b688792f80546001600160a01b03191690911790556001600160a01b038216156107a057813b611eb157600080fd5b611ec2826000836001600019611b61565b6107a057600080fd5b604080516001600160a01b03841660248201526044808201849052825180830390910181526064909101909152602080820180516001600160e01b031663a9059cbb60e01b1781528251600093929184919082896127105a03f13d8015611f3d5760208114611f455760009350611f50565b819350611f50565b600051158215171593505b5050509392505050565b6001600160a01b0381168114611f6f57600080fd5b50565b8035611f7d81611f5a565b919050565b60008060408385031215611f9557600080fd5b8235611fa081611f5a565b946020939093013593505050565b634e487b7160e01b600052604160045260246000fd5b600082601f830112611fd557600080fd5b813567ffffffffffffffff80821115611ff057611ff0611fae565b604051601f8301601f19908116603f0116810190828211818310171561201857612018611fae565b8160405283815286602085880101111561203157600080fd5b836020870160208301376000602085830101528094505050505092915050565b6000806000806080858703121561206757600080fd5b84359350602085013567ffffffffffffffff8082111561208657600080fd5b61209288838901611fc4565b945060408701359150808211156120a857600080fd5b506120b587828801611fc4565b949793965093946060013593505050565b6000602082840312156120d857600080fd5b8135611b3e81611f5a565b803560028110611f7d57600080fd5b6000806000806080858703121561210857600080fd5b843561211381611f5a565b935060208501359250604085013567ffffffffffffffff81111561213657600080fd5b61214287828801611fc4565b925050612151606086016120e3565b905092959194509250565b6000815180845260005b8181101561218257602081850181015186830182015201612166565b506000602082860101526020601f19601f83011685010191505092915050565b8215158152604060208201526000610c0d604083018461215c565b600080604083850312156121d057600080fd5b50508035926020909101359150565b602081526000611b3e602083018461215c565b60006020828403121561220457600080fd5b5035919050565b60008083601f84011261221d57600080fd5b50813567ffffffffffffffff81111561223557600080fd5b60208301915083602082850101111561224d57600080fd5b9250929050565b60008060008060008060008060008060006101408c8e03121561227657600080fd5b61227f8c611f72565b9a5060208c0135995067ffffffffffffffff8060408e013511156122a257600080fd5b6122b28e60408f01358f0161220b565b909a5098506122c360608e016120e3565b975060808d0135965060a08d0135955060c08d013594506122e660e08e01611f72565b93506122f56101008e01611f72565b9250806101208e0135111561230957600080fd5b5061231b8d6101208e01358e01611fc4565b90509295989b509295989b9093969950565b60008060006060848603121561234257600080fd5b83359250602084013567ffffffffffffffff8082111561236157600080fd5b61236d87838801611fc4565b9350604086013591508082111561238357600080fd5b5061239086828701611fc4565b9150509250925092565b600081518084526020808501945080840160005b838110156123d35781516001600160a01b0316875295820195908201906001016123ae565b509495945050505050565b602081526000611b3e602083018461239a565b6000806040838503121561240457600080fd5b823561240f81611f5a565b9150602083013567ffffffffffffffff81111561242b57600080fd5b61243785828601611fc4565b9150509250929050565b6000806000806000806000806000806101008b8d03121561246157600080fd5b8a3567ffffffffffffffff8082111561247957600080fd5b818d0191508d601f83011261248d57600080fd5b81358181111561249c57600080fd5b8e60208260051b85010111156124b157600080fd5b60208381019d50909b508d013599506124cc60408e01611f72565b985060608d01359150808211156124e257600080fd5b506124ef8d828e0161220b565b9097509550612502905060808c01611f72565b935061251060a08c01611f72565b925060c08b0135915061252560e08c01611f72565b90509295989b9194979a5092959850565b604081526000612549604083018561239a565b905060018060a01b03831660208301529392505050565b60008060008060008060008060008060006101408c8e03121561258257600080fd5b8b3561258d81611f5a565b9a5060208c0135995060408c013567ffffffffffffffff8111156125b057600080fd5b6125bc8e828f0161220b565b909a5098506125cf905060608d016120e3565b965060808c0135955060a08c0135945060c08c0135935060e08c01356125f481611f5a565b92506101008c013561260581611f5a565b809250506101208c013590509295989b509295989b9093969950565b6000806040838503121561263457600080fd5b823561263f81611f5a565b9150602083013561264f81611f5a565b809150509250929050565b60008060006060848603121561266f57600080fd5b833561267a81611f5a565b9250602084013561268a81611f5a565b9150604084013561269a81611f5a565b809150509250925092565b6000806000606084860312156126ba57600080fd5b83356126c581611f5a565b925060208401356126d581611f5a565b929592945050506040919091013590565b634e487b7160e01b600052601160045260246000fd5b60006001820161270e5761270e6126e6565b5060010190565b604081526000612728604083018561215c565b8281036020840152611b9f818561215c565b60006020828403121561274c57600080fd5b81516001600160e01b031981168114611b3e57600080fd5b60ff8281168282160390811115610b2957610b296126e6565b8082028115828204841417610b2957610b296126e6565b634e487b7160e01b600052602160045260246000fd5b600281106127c857634e487b7160e01b600052602160045260246000fd5b9052565b6001600160a01b038d168152602081018c90526101606040820181905281018a905260006101808b8d828501376000838d01820152601f8c01601f19168301612818606085018d6127aa565b8a60808501528960a08501528860c085015261283f60e08501896001600160a01b03169052565b6001600160a01b03871661010085015281848203016101208501526128668282018761215c565b925050506128806101408301846001600160a01b03169052565b9d9c50505050505050505050505050565b80820180821115610b2957610b296126e6565b6000826128c157634e487b7160e01b600052601260045260246000fd5b500490565b81810381811115610b2957610b296126e6565b634e487b7160e01b600052603260045260246000fd5b6080808252810185905260008660a08301825b8881101561293257823561291581611f5a565b6001600160a01b0316825260209283019290910190600101612902565b50602084019690965250506001600160a01b039283166040820152911660609091015292915050565b60006020828403121561296d57600080fd5b81518015158114611b3e57600080fd5b8183823760009101908152919050565b8b81526001600160a01b038b81166020830152604082018b9052606082018a90526101608201906129c1608084018b6127aa565b60a083019890985260c082019690965260e0810194909452918516610100840152909316610120820152610140019190915295945050505050565b600081612a0b57612a0b6126e6565b50600019019056fea164736f6c6343000814000aa164736f6c6343000814000a",
  "linkReferences": {},
  "deployedLinkReferences": {}
}